:1000000045C000004BC0000049C0000047C00000D0
:1000100045C0000043C0000041C000003FC00000D8
:100020003DC000003BC0000039C0000037C00000E8
:1000300035C0000033C0000031C000002FC00000F8
:100040002DC000002BC0000029C0000027C0000008
:1000500025C0000023C0000021C000001FC0000018
:100060001DC000001BC0000019C0000017C0000028
:1000700015C0000013C0000011C000000FC0000038
:100080000DC000000BC0000009C0000011241FBEFD
:10009000CFEFD0E1DEBFCDBF32D09BC0B1CF8FB5A7
:1000A00082608FBD8EB588618EBD8FB580688FBD33
:1000B0008EB582608EBD8FEC97E097BD86BD86B50C
:1000C00097B59BBD8ABD089585B5806185BD85B511
:1000D0008F7D85BD089585B58F7E85BD85B5806290
:1000E00085BD0895F8DF85B5886085BD85B58160DB
:1000F00085BD85B5826085BD8CE383BD08958AB3D7
:1001000081608ABB87B3806287BB84B3866084BB0F
:1001100087B3806887BB84B3886184BB87B3806101
:1001200087BB85B38B7F85BB85B38F7E85BBB7DFF0
:10013000D9DF2FEF83E294EF215080409040E1F728
:1001400000C0000085B3826085BB08EE13E01BBDD4
:100150000ABD85B3886085BBB7DF8BB38E7F8BBB51
:100160002FEF83ED90E3215080409040E1F700C0F5
:100170000000B1DFC0EDD7E0DBBDCABD2FEF83EDDE
:1001800090E3215080409040E1F700C0000085B32B
:100190008D7F85BB1BBD0ABD85B3877F85BB94DF83
:1001A0008BB381608BBB2FEF83ED90E321508040B8
:1001B0009040E1F700C000008EDFDBBDCABD2FEF2D
:1001C00083ED90E3215080409040E1F700C00000B3
:0601D000B9CFF894FFCF47
:00000001FF
