S01300006175746F446973706C61792E7372656382
S113000045C0000060C000005EC000005CC000008D
S11300105AC0000058C0000056C0000054C0000080
S113002052C0000050C000004EC000004CC0000090
S11300304AC0000048C00000F7C1000044C00000EE
S113004042C0000040C000003EC000003CC00000B0
S11300503AC0000038C0000036C0000034C00000C0
S113006032C0000030C000002EC000002CC00000D0
S11300702AC0000028C0000026C0000024C00000E0
S113008022C0000020C000001EC0000011241FBEBA
S1130090CFEFD0E1DEBFCDBF11E0A0E0B1E0E2E3FD
S11300A0F8E000E00BBF02C007900D92A430B10746
S11300B0D9F721E0A4E0B1E001C01D92AE30B2074F
S11300C0E1F723D2B4C39CCF87B3806187BB83B7E6
S11300D0886083BF83B78F7E83BF83B7806283BF0B
S11300E083B7816083BF83B7826083BF8CE781BF9E
S11300F0089587B3806887BB85B5886085BD85B55D
S11301008F7E85BD85B5806285BD85B5816085BDE1
S113011085B5826085BD8CE783BD08958FB5826007
S11301208FBD8EB588618EBD8EB581608EBD8FE723
S11301309EE397BD86BD87B7846087BF089582B16B
S1130140886382B9EBE8F0E0808182608083AAE86A
S1130150B0E08C9188618C9380818F7B80838081D7
S11301608068808380818F7E8083808180628083A9
S113017080818B7F80838081886080838C91826082
S11301808C9380E49CE990938700809386009093FD
S113019085008093840090938300809382008FE392
S11301A09CE9909381008093800008959C01CB0189
S11301B0BA012230310589F023303105C9F02130EC
S11301C0310501F520E030E048EC53E4A5D24FD2EC
S11301D07093870060938600089520E030E048EC37
S11301E053E49AD244D270938500609384000895B6
S11301F020E030E048EC53E48FD239D2709383008E
S113020060938200089507C0EFE9FFE03197F1F7AA
S113021000C0000001970097B9F7089583B7806183
S113022083BF83B78F7D83BF089583B78F7E83BFDA
S113023083B7806283BF089585B5806185BD85B528
S11302408F7D85BD089585B58F7E85BD85B580621A
S113025085BD0895CF93DF93EC0185B3826085BBA0
S1130260DDDF89E1282F2C9FC0012D9F900D1124E3
S1130270CADFDBDF8FEF93EC29E081509040204010
S1130280E1F700C0000080910A0190910B018C1BE2
S11302909D0B90930B0180930A01DF91CF910895F8
S11302A020910C0130910D01280F391F30930D015D
S11302B020930C0120910A0130910B01260F371F66
S11302C030930B0120930A01992324F025B32F7D49
S11302D025BB06C025B3206225BB91958195910964
S11302E0772324F025B32D7F25BB06C025B32260D8
S11302F025BB7195619571091DBC1CBC109203014D
S11303001092020110920101109200011DBC1CBC4C
S11303109C01220F331F880F991F880F991F880F84
S1130320991F820F931F909309018093080129E17B
S1130330269FC001279F900D11249093070180935D
S113034006017ADF6BCF08950F931F93CF93DF934A
S113035020910C0130910D01AC01421B530BEA01B9
S113036020910A0130910B01FB01E21BF30B9F0169
S11303708F0190930D0180930C0170930B01609396
S11303800A01DD2324F085B38F7D85BB07C085B3C7
S1130390806285BBCC27DD27C41BD50B112324F039
S11303A085B38D7F85BB07C085B3826085BB00277D
S11303B01127021B130B1DBC1CBC109203011092CD
S11303C0020110920101109200011DBC1CBC34DF1B
S11303D025DFCE01880F991FCC0FDD1FCC0FDD1F49
S11303E0CC0FDD1FC80FD91FD0930901C09308019A
S11303F029E1209FC001219F900D112490930701B2
S113040080930601DF91CF911F910F910895809100
S1130410020190910301892BD1F380910001909105
S11304200101892BA1F308951F920F920FB60F9229
S113043011240BB60F922F933F934F935F936F93B7
S11304407F938F939F93AF93BF93EF93FF9381E039
S113045090E02091040130910501232B11F080E0FC
S113046090E09093050180930401892B21F085B3DA
S1130470806885BB03C085B38F7785BB80910801F5
S1130480909109018F3F2FEF920729F001979093E4
S113049009018093080180910601909107018F3F23
S11304A02FEF920729F0019790930701809306019B
S11304B08091080190910901892B39F4C4DE81E00F
S11304C090E0909303018093020180910601909142
S11304D00701892B39F4A9DE81E090E090930101B2
S11304E080930001FF91EF91BF91AF919F918F9104
S11304F07F916F915F914F913F912F910F900BBE20
S11305000F900FBE0F901F9018958AB381608ABB1D
S113051084B3836084BB84B3806384BB85B38E7FE0
S113052085BB85B38F7E85BB84B3806884BBCCDDFB
S1130530E0DD05DEF3DD87B7846087BF78948BB395
S11305408E7F8BBB2FEF33E284EF2150304080400D
S1130550E1F700C000004AE959E961E071E483E091
S113056090E024DE40E050E060E071E482E090E05E
S11305701DDE40E050E060EE70E481E090E016DEC5
S11305808CE291E067DE9AEA26EE36E981E091504A
S1130590204030408040D9F7000064E670E084E6F3
S11305A090E07EDE34DF9FEF23E234EF9150204071
S11305B03040E1F700C000006CE97FEF8CE99FEF69
S11305C06FDE25DF8FEF93E224EF815090402040CF
S11305D0E1F700C0000068EC70E088EC90E060DEB9
S11305E016DF3FEF83E294EF315080409040E1F713
S11305F000C0000068E37FEF88E39FEF51DE07DF70
S11306002FEF33E284EF215030408040E1F700C007
S1130610000068EC70E088EC90E096DEF8DE9FEF76
S113062023E234EF915020403040E1F700C0000055
S11306306CE271E08CE291E087DEE9DE8FEF93E219
S113064024EF815090402040E1F700C0000060E0BA
S113065070E080E090E078DEDADE3FEF83E294EF52
S1130660315080409040E1F700C0000096CF33D075
S113067088F09F5790F0B92F9927B751A0F0D1F087
S1130680660F771F881F991F1AF0BA95C9F712C011
S1130690B13081F03AD0B1E0089537C0672F782F98
S11306A08827B85F39F0B93FCCF38695779567957D
S11306B0B395D9F73EF490958095709561957F4FE9
S11306C08F4F9F4F089557FD9058440F551F59F071
S11306D05F3F71F04795880F97FB991F61F09F3F2B
S11306E079F087950895121613061406551FF2CF54
S11306F04695F1DF08C0161617061806991FF1CFA4
S113070086957105610508940895E894BB276627CA
S11307107727CB0197F908950BD078C069D028F0DA
S11307206ED018F0952309F05AC05FC01124EECFA3
S1130730CADFA0F3959FD1F3950F50E0551F629F38
S1130740F001729FBB27F00DB11D639FAA27F00D26
S1130750B11DAA1F649F6627B00DA11D661F829F4D
S11307602227B00DA11D621F739FB00DA11D621F32
S1130770839FA00D611D221F749F3327A00D611D4F
S1130780231F849F600D211D822F762F6A2F112431
S11307909F5750408AF0E1F088234AF0EE0FFF1F84
S11307A0BB1F661F771F881F91505040A9F79E3FBB
S11307B0510570F014C0AACF5F3FECF3983EDCF310
S11307C0869577956795B795F795E7959F5FC1F7F8
S11307D0FE2B880F911D9695879597F9089597F9A3
S11307E09F6780E870E060E008959FEF80EC0895D3
S11307F000240A94161617061806090608950024FC
S11308000A9412161306140605060895092E039475
S1130810000C11F4882352F0BB0F40F4BF2B11F4E9
S113082060FF04C06F5F7F4F8F4F9F4F0895F89410
S1050830FFCFF4
S107083201000100BC
S9030000FC
