:1000000045C0000060C000005EC000005CC0000091
:100010005AC0000058C0000056C0000054C0000084
:1000200052C0000050C000004EC000004CC0000094
:100030004AC0000048C000004BC1000044C000009E
:1000400042C0000040C000003EC000003CC00000B4
:100050003AC0000038C0000036C0000034C00000C4
:1000600032C0000030C000002EC000002CC00000D4
:100070002AC0000028C0000026C0000024C00000E4
:1000800022C0000020C000001EC0000011241FBEBE
:10009000CFEFD0E1DEBFCDBF11E0A0E0B1E0E4E200
:1000A000F4E000E00BBF02C007900D92A430B1074E
:1000B000D9F721E0A4E0B1E001C01D92AC30B20755
:1000C000E1F760D1ADC19CCF87B3806187BB83B7B7
:1000D000886083BF83B78F7E83BF83B7806283BF0F
:1000E00083B7816083BF83B7826083BF8CE781BFA2
:1000F000089587B3806887BB85B5886085BD85B561
:100100008F7E85BD85B5806285BD85B5816085BDE5
:1001100085B5826085BD8CE783BD08958FB582600B
:100120008FBD8EB588618EBD8EB581608EBD8FE727
:100130009EE397BD86BD089582B1886382B9EBE8DE
:10014000F0E0808182608083AAE8B0E08C918861D1
:100150008C9380818F7B8083808180688083808185
:100160008F7E808380818062808380818B7F80838B
:100170008081886080838C9182608C9380E49CE98C
:1001800090938700809386009093850080938400ED
:1001900090938300809382008FE39CE99093810089
:1001A00080938000089583B7806183BF83B78F7D7C
:1001B00083BF089583B78F7E83BF83B7806283BF79
:1001C000089585B5806185BD85B58F7D85BD089510
:1001D00085B58F7E85BD85B5806285BD0895CF923A
:1001E000DF92EF92FF920F931F93CF93DF936C01F7
:1001F0007B0180910A0190910B019601281B390B1C
:10020000C901E9012091080130910901AB01421BAC
:10021000530B9A018A01992324F085B38F7D85BB06
:1002200007C045B3406245BBCC27DD27C81BD90BAF
:10023000112324F085B38D7F85BB07C085B3826011
:1002400085BB00271127021B130B1092030110928C
:10025000020110920101109200011DBC1CBCB1DF13
:10026000A2DFCE01880F991FCC0FDD1FCC0FDD1F41
:10027000CC0FDD1FC80FD91FD0930701C093060113
:1002800029E1209FC001219F900D11249093050129
:1002900080930401D0920B01C0920A01F0920901EF
:1002A000E0920801DF91CF911F910F91FF90EF90A5
:1002B000DF90CF9008958091020190910301019702
:1002C000D1F380910001909101010197A1F308956C
:1002D0001F920F920FB60F9211240BB60F922F930D
:1002E0003F934F935F936F937F938F939F93AF93BE
:1002F000BF93EF93FF9380910601909107018F3F89
:100300002FEF920729F00197909307018093060140
:1003100080910401909105018F3F2FEF920729F002
:1003200001979093050180930401809106019091BB
:100330000701892B39F44CDF81E090E090930301B1
:10034000809302018091040190910501892B39F479
:1003500031DF81E090E09093010180930001FF91F3
:10036000EF91BF91AF919F918F917F916F915F912D
:100370004F913F912F910F900BBE0F900FBE0F909A
:100380001F9018958AB381608ABB84B3836084BB55
:1003900084B3806384BB85B38E7F85BB85B38F7E3A
:1003A00085BB92DEA6DEC8DEB9DE87B7846087BF74
:1003B00078942FEF83E294EF215080409040E1F752
:1003C00000C0000064E670E084E690E008DF73DFC0
:1003D0002FEF8BE792E9215080409040E1F700C079
:1003E000000060E971E080E991E0F9DE64DF2FEF61
:1003F0008BE792E9215080409040E1F700C0000077
:1004000068E572E088EC90E0EADE55DF2FEF8BE7DD
:1004100092E9215080409040E1F700C00000D2CF27
:04042000F894FFCF7E
:0404240001000100D2
:00000001FF
