:100000004BC00000CFC6000065C0000063C0000008
:1000100061C000005FC000005DC000005BC0000068
:1000200059C0000057C0000055C0000053C0000078
:1000300051C000004FC00000DFC600004BC00000F0
:1000400049C0000047C0000045C0000043C0000098
:1000500041C000003FC000003DC000003BC00000A8
:1000600039C0000037C0000035C0000033C00000B8
:1000700031C000002FC000002DC000002BC00000C8
:1000800029C0000027C0000025C000006364696E1D
:100090006F70737578585B0011241FBECFEFD0E1ED
:1000A000DEBFCDBF14E0A0E0B1E0EEEAFCE100E08D
:1000B0000BBF02C007900D92AC33B107D9F724E013
:1000C000ACE3B4E001C01D92AA34B207E1F7EED66A
:1000D0000C94550E95CF8F929F92AF92BF92CF9274
:1000E000DF92EF92FF920F931F93CF93DF93CDB7E1
:1000F000DEB72A970FB6F894DEBF0FBECDBFC12C76
:10010000D12C84E891E09F938F9391D780E091E088
:100110009F938F9383EC91E09F938F93D0D766EC5E
:1001200071E080E091E070D70F900F900F900F90EA
:100130000F900F90892BD9F068EC71E080E091E08E
:1001400063D7892BD1F06AEC71E080E091E05CD755
:10015000892BD1F06CEC71E080E091E055D7892BD0
:10016000D9F08EEC91E07BD701E010E01AC0EE24CC
:10017000E394F12C00E010E014C06894EE24E1F860
:10018000F12C00E010E00DC00F2EF3E0EF2EF12C6B
:10019000F02D00E010E005C000E010E0CC24C39496
:1001A000D12C0115110509F0ACCFC114D10409F00F
:1001B000B5C0C7010197029708F045C08AEE91E0EB
:1001C0009F938F9334D7CE0101969F938F930F2ED9
:1001D000F7E58F2EF3E09F2EF02D9F928F926FD731
:1001E0008A818F9389818F930F2EFAEFAF2EF1E0E2
:1001F000BF2EF02DBF92AF921AD78FE092E09F935F
:100200008F9315D7CE0103969F938F939F928F92D2
:1002100056D78C818F938B818F93BF92AF9207D7E4
:100220008C818F938B818F938A818F9389818F9318
:100230008FE192E09F938F93FAD60FB6F894DEBFCA
:100240000FBECDBF33C093E0E916F10479F584E326
:1002500092E09F938F93EBD6CE0105969F938F9359
:100260000F2EF7E5AF2EF3E0BF2EF02DBF92AF9229
:1002700026D78DE392E09F938F93D9D6CE01079630
:100280009F938F93BF92AF921AD786E492E09F9389
:100290008F93CDD6CE0109969F938F93BF92AF9245
:1002A0000ED70FB6F894DEBF0FBECDBF8FE492E03D
:1002B0009F938F93BCD680E091E09F938F9383ECC4
:1002C00091E09F938F93FBD66CE672E080E091E023
:1002D0009BD60F900F900F900F900F900F90892B3F
:1002E00069F06EE672E080E091E08ED6892B41F0F5
:1002F00080E792E0B4D681E090E003C0C80101C07D
:10030000C801892B99F680EE93E0A9D66CE672E0DD
:1003100080E091E079D6892B09F0F3CEC114D104A5
:1003200009F063C091E0E916F10439F56B817C8135
:1003300089819A81FAD3B7D4809141048F938091B7
:1003400040048F93809143048F93809142048F9354
:1003500087E892E09F938F936AD62FEF83ED90E327
:10036000215080409040E1F700C000000F900F90B6
:100370000F900F900F900F90C4CE22E0E216F10480
:1003800039F56B817C8189819A8128D48CD48091C4
:1003900041048F93809140048F93809143048F9305
:1003A000809142048F9387E892E09F938F933FD68A
:1003B0008FEF93ED20E3815090402040E1F700C0A3
:1003C00000000F900F900F900F900F900F9099CE0C
:1003D00083E0E816F10409F094CE49855A856F81CF
:1003E00078858D819E81ECD28CCE2A960FB6F894BA
:1003F000DEBF0FBECDBFDF91CF911F910F91FF9058
:10040000EF90DF90CF90BF90AF909F908F90089526
:100410000F931F93CF93DF9350D35FD303D389EA16
:1004200092E09F938F9303D680E091E09F938F9308
:1004300083EC91E09F938F9342D666EC71E080E06D
:1004400091E0E2D50F900F900F900F900F900F90CA
:10045000892B31F582ED92E09F938F93E8D500E0F0
:1004600011E01F930F93C3ECD1E0DF93CF9327D616
:1004700020D327D33ED386EE92E09F938F93D7D598
:100480001F930F93DF93CF931AD63AD316D38DB71A
:100490009EB70C960FB6F8949EBF0FBE8DBFBFCF10
:1004A00068EC71E080E091E0AFD5892B31F582ED09
:1004B00092E09F938F93BBD500E011E01F930F93C1
:1004C000C3ECD1E0DF93CF93FAD5F3D2FED211D3B0
:1004D00086EE92E09F938F93AAD51F930F93DF939D
:1004E000CF93EDD50DD3E9D28DB79EB70C960FB64D
:1004F000F8949EBF0FBE8DBF92CF6CEC71E080E090
:1005000091E082D5892B21F088EF92E0A8D587CFA2
:1005100078D2CFD2DED2DF91CF911F910F91089583
:10052000109243041092420410924104109240042D
:1005300008950F931F93CF93DF9300D000D0CDB7D2
:10054000DEB7EEDF8EE690E085D580EE93E087D5CE
:100550008FE093E084D58FE293E09F938F9367D5EC
:10056000CE0103969F938F9302979F938F9384E579
:1005700093E09F938F93A3D50FB6F894DEBF0FBE81
:10058000CDBF24C082E790E065D580EE93E067D5CB
:100590008AE593E09F938F934AD58FE093E05FD5F0
:1005A0008FE293E09F938F9342D5CE0103969F9362
:1005B0008F9302979F938F9384E593E09F938F93FC
:1005C0007ED50FB6F894DEBF0FBECDBF89819A816C
:1005D0000597C0F68B819C810997A0F600E010E09A
:1005E00089819A818430910551F48FE693E09F933D
:1005F0008F931DD50F900F9001E010E011C02C815A
:100600002F932B812F939F938F9380E893E09F9359
:100610008F930DD50F900F900F900F900F900F901C
:1006200084E993E09F938F9302D580E091E09F93BC
:100630008F9383EC91E09F938F9341D56CE672E0AA
:1006400080E091E0E1D40F900F900F900F900F9009
:100650000F90892B69F06EE672E080E091E0D4D4CF
:10066000892B49F080E792E0FAD481E090E005C060
:1006700080E090E002C080E090E0892B09F0B0CFEC
:1006800080EE93E0ECD46CE672E080E091E0BCD4C4
:10069000892B09F057CF0130110509F488C18981F0
:1006A0009A81FC01EE0FFF1FEC5EFE4F21812F931C
:1006B00020812F93FC01EE0FFF1FEE0FFF1FEE0FA7
:1006C000FF1FE80FF91F8B819C81E80FF91FEE0FC8
:1006D000FF1FE45EFE4F81818F9380818F9384EBB7
:1006E00093E09F938F93A3D48CD19FEF29E688E169
:1006F000915020408040E1F700C0000062ED70E0C2
:100700008CE890E06BD2CFD29FEF29E688E1915040
:1007100020408040E1F700C00000A8D162ED70E009
:1007200080E090E05BD2BFD29FEF23EC89E0915054
:1007300020408040E1F700C000008AD19FEF23EC09
:1007400089E0915020408040E1F700C0000068E25D
:1007500070E080E090E0E9D1A6D29FEF21EE84E046
:10076000915020408040E1F700C0000060E070E060
:1007700084E690E0DAD197D29FEF21EE84E09150A9
:1007800020408040E1F700C0000029813A81F90152
:10079000EE0FFF1FEE0FFF1FEE0FFF1FE20FF31F05
:1007A0008B819C81E80FF91FEE0FFF1FE45EFE4F67
:1007B000808191810F900F900F900F900F900F906C
:1007C0008B3F91050CF050C0220F331FF901EC5EF6
:1007D000FE4F608171818AEF90E000D264D29FEF7A
:1007E00023EC89E0915020408040E1F700C00000F8
:1007F00044D19FEF29E688E1915020408040E1F705
:1008000000C0000048D19FEF29E688E191502040C8
:100810008040E1F700C0000089819A81FC01EE0F61
:10082000FF1FEC5EFE4F60817181FC01EE0FFF1F28
:10083000EE0FFF1FEE0FFF1FE80FF91F8B819C814A
:10084000E80FF91FEE0FFF1FE45EFE4F80819181DC
:10085000C5D129D29FEF23EC89E091502040804000
:10086000E1F700C0000026C0220F331FF901EC5E43
:10087000FE4F60817181B2D116D29FEF23EC89E0E7
:10088000915020408040E1F700C00000F6D09FEF7B
:1008900029E688E1915020408040E1F700C0000047
:1008A000FAD09FEF29E688E1915020408040E1F79F
:1008B00000C00000D4D09FEF21EE84E09150204092
:1008C0008040E1F700C000006EEC7FEF80E090E038
:1008D0002CD1E9D19FEF23EC89E09150204080405A
:1008E000E1F700C00000C2D09FEF2DE389E49150F2
:1008F00020408040E1F700C0000062E370E080E04B
:1009000090E013D1D0D19FEF23EC89E091502040AB
:100910008040E1F700C0000029813A81F901EE0F23
:10092000FF1FEE0FFF1FEE0FFF1FE20FF31F8B8164
:100930009C81E80FF91FEE0FFF1FE45EFE4F8081E0
:1009400091818B3F9105A4F4220F331FF901EC5ED6
:10095000FE4F608171818AEF90E040D1A4D19FEF7A
:1009600023EC89E0915020408040E1F700C0000076
:1009700068D09FEF23EC89E0915020408040E1F760
:1009800000C000008FD09FEF29E688E19150204001
:100990008040E1F700C0000077D09FEF29E688E1B2
:1009A000915020408040E1F700C00000CBCD0F9077
:1009B0000F900F900F90DF91CF911F910F9108959D
:1009C000009741F0880F991F880F991F9093870017
:1009D000809386006115710541F0660F771F660FE1
:1009E000771F70938500609384004115510541F095
:1009F000440F551F440F551F5093830040938200AE
:100A0000089580E89CE090938700809386009093FF
:100A100085008093840080E19EE090938300809322
:100A20008200089580EE9EE2909387008093860076
:100A3000909385008093840090938300809382003C
:100A4000089580E89CE09093870080938600089545
:100A500088EF9CE09093870080938600089588E457
:100A60009DE09093870080938600089588E89EE03B
:100A70009093870080938600089580EB94E0909394
:100A8000850080938400089580E89CE09093850021
:100A900080938400089588ED94E090938300809380
:100AA0008200089580E19EE090938300809382000D
:100AB000089588B38B7F88BB089588B3846088BB12
:100AC000089588B3877F88BB089588B3886088BB02
:100AD000089588B38F7D88BB089588B3806288BBF2
:100AE000089588B38F7B88BB089588B3806488BBE2
:100AF000089583B7806183BF83B78F7D83BF0895D7
:100B000083B78F7E83BF83B7806283BF089585B527
:100B1000806185BD85B58F7D85BD089585B58F7E46
:100B200085BD85B5806285BD08950F931F93CF93D2
:100B3000DF93EC018B0180914204909143048C0F70
:100B40009D1F9093430480934204809140049091B0
:100B50004104860F971F9093410480934004DD2346
:100B600014F0BFDF04C0C1DFD195C195D1091123B5
:100B700014F0A7DF04C0A9DF1195019511091DBC70
:100B80001CBC209729F0C3DF109267011092660108
:100B90000115110529F0ADDF109265011092640175
:100BA000CE01880F991FCC0FDD1FCC0FDD1FCC0F9E
:100BB000DD1FC80FD91FD0933F04C0933E0429E125
:100BC000209FC001219F900D112490933D0480939C
:100BD0003C04DF91CF911F910F910895CF92DF9246
:100BE000EF92FF920F931F93CF93DF9320914204D4
:100BF000309143046C01C21AD30AE60120914004EB
:100C0000309141047B01E21AF30A87019093430477
:100C1000809342047093410460934004DD2314F0F8
:100C200060DF05C062DFCC27DD27CC19DD09112389
:100C300014F047DF05C049DF002711270E191F09EF
:100C40001DBC1CBC209729F062DF10926701109236
:100C500066010115110529F04CDF10926501109213
:100C60006401CE01880F991FCC0FDD1FCC0FDD1F53
:100C7000CC0FDD1FC80FD91FD0933F04C0933E0493
:100C800029E1209FC001219F900D112490933D04E4
:100C900080933C04DF91CF911F910F91FF90EF90D3
:100CA000DF90CF9008958091660190916701892B24
:100CB000D1F38091640190916501892BA1F308958E
:100CC00087B3806187BB83B7886083BF83B78F7E1C
:100CD00083BF83B7806283BF83B7816083BF83B7DD
:100CE000826083BF8CE781BF089587B3806887BB2C
:100CF00085B5886085BD85B58F7E85BD85B58062EB
:100D000085BD85B5816085BD85B5826085BD8CE773
:100D100083BD08958FB582608FBD8EB588618EBD0D
:100D20008EB581608EBD8FE79EE397BD86BD87B788
:100D3000846087BF089582B1886382B9EBE8F0E0F0
:100D4000808182608083AAE8B0E08C9188618C9376
:100D500080818F7B808380818068808380818F7E8B
:100D6000808380818062808380818B7F808380818B
:100D7000886080838C9182608C9380E49CE990935E
:100D800087008093860090938500809384009093E1
:100D90008300809382008FE39CE99093810080938D
:100DA000800008951F920F920FB60F9211240BB678
:100DB0000F922F933F934F935F936F937F938F93F4
:100DC0009F93AF93BF93EF93FF932CDE89EC93E057
:100DD00046D1FF91EF91BF91AF919F918F917F91FC
:100DE0006F915F914F913F912F910F900BBE0F909C
:100DF0000FBE0F901F9018951F920F920FB60F9273
:100E000011240BB60F922F933F934F935F936F93E1
:100E10007F938F939F93AF93BF93EF93FF938091B3
:100E20003E0490913F048F3F2FEF920729F00197E6
:100E300090933F0480933E0480913C0490913D0444
:100E40008F3F2FEF920729F0019790933D048093F5
:100E50003C0480913E0490913F04892B39F45EDE7E
:100E600081E090E0909367018093660180913C045B
:100E700090913D04892B39F443DE81E090E090931A
:100E8000650180936401FF91EF91BF91AF919F91B4
:100E90008F917F916F915F914F913F912F910F9023
:100EA0000BBE0F900FBE0F901F901895CF93DF933E
:100EB000CDB7DEB764970FB6F894DEBF0FBECDBFD7
:100EC00087B38C6087BB87B3806687BB88B38B7F13
:100ED00088BB88B38F7D88BBF3DE07DF2CDF1ADF8A
:100EE00087B7846087BF81B38E7F81BB82B3816007
:100EF00082BB89B7816089BFEAE6F0E080818260C9
:100F0000808378945BD0E4E4F4E086E791E0938317
:100F1000828388E691E09183808373DD2FEF83E203
:100F200094EF215080409040E1F700C0000080E342
:100F300090E09A838983FE01339682E1DF011D925E
:100F40008A95E9F782EE93E09F938F9370D08E019C
:100F50000F5F1F4F1F930F9383EC91E09F938F932D
:100F6000AED066EC71E0C8014FD00F900F900F909B
:100F70000F900F900F90892B11F4ADD8E3CF68EC50
:100F800071E0CE01019640D0892B11F4D2DADACF8C
:100F90006AEC71E0CE01019637D0892B11F438DA72
:100FA000D1CF6EE174E0CE0101962ED0892B11F4E1
:100FB000B7DAC8CF80E294E052D0C4CF1092980044
:100FC0008FEC80939900EBE9F0E080818260808370
:100FD000EDE9F0E0808186608083EAE9F0E08081DD
:100FE00080618083808188608083089590919B00D8
:100FF00095FFFCCF80939C00089580919B008823EF
:10100000E4F780919C000895FB01DC018D9181340F
:101010001CF08B350CF4805E619161341CF06B35F3
:101020000CF4605E861B611189F3990B0895CF93D0
:10103000DF93CDB7DEB7AE014B5F5F4FFA01619131
:101040007191AF0180914604909147044BD0DF919C
:10105000CF910895609146047091470470C50F9335
:101060001F93CF93DF93E0914604F09147042381CF
:1010700021FF1BC08C01D0E0C0E0F80181918F01FD
:101080006091460470914704DB011896ED91FC9144
:101090001997882331F00995892B79F3DFEFCFEF8A
:1010A000ECCF8AE00995892B19F08FEF9FEF02C0F2
:1010B0008D2F9C2FDF91CF911F910F910895CF938A
:1010C000DF93CDB7DEB7AE014B5F5F4FFA016191A1
:1010D0007191AF018091440490914504B2D3DF91A6
:1010E000CF9108952F923F924F925F926F927F928D
:1010F0008F929F92AF92BF92CF92DF92EF92FF9228
:101100000F931F93CF93DF93CDB7DEB72B970FB617
:10111000F894DEBF0FBECDBF6C017B018A01FC01DC
:1011200017821682838181FFBFC1CE0101963C01E7
:10113000F6019381F70193FD859193FF81917F01E2
:10114000882309F4ADC1853239F493FD859193FF6D
:1011500081917F01853221F4B60190E0F0D4E8CF8F
:10116000912C212C312CFFE1F315D8F08B3279F042
:1011700038F4803279F08332A1F4232D20611DC030
:101180008D3261F0803369F4232D216016C0832DE8
:101190008260382EE32DE4603E2E2AC0F32DF860E5
:1011A0001DC037FC2DC020ED280F2A3040F08E32B4
:1011B000B9F436FC75C1232D2064322E19C036FED9
:1011C00006C08AE0989E200D1124922E11C0EAE0FC
:1011D0002E9E200D1124222EF32DF0623F2E08C0EA
:1011E0008C3621F4832D8068382E02C0883641F475
:1011F000F70193FD859193FF81917F018111B3CF19
:10120000982F9F7D9554933028F40C5F1F4F9FE3D8
:1012100099830DC0833631F0833771F0833509F03F
:1012200055C020C0F801808189830E5F1F4F88243C
:101230008394912C530112C02801F2E04F0E511CEF
:10124000F801A080B18036FE03C0692D70E002C0B5
:101250006FEF7FEFC5012AD44C018201F32DFF7798
:101260003F2E15C0280122E0420E511CF801A0803B
:10127000B18036FE03C0692D70E002C06FEF7FEFD2
:10128000C50109D44C01F32DF0683F2E820133FCD7
:1012900019C0822D90E088169906A0F4B60180E26C
:1012A00090E04DD42A94F5CFF50137FC859137FEB7
:1012B00081915F01B60190E042D421102A9421E08F
:1012C000821A91088114910479F7E1C0843611F0F3
:1012D000893639F5F80137FE07C060817181828156
:1012E00093810C5F1F4F08C060817181072E000C35
:1012F000880B990B0E5F1F4FF32DFF763F2E97FF44
:1013000009C090958095709561957F4F8F4F9F4F45
:10131000F0683F2E2AE030E0A30166D4882E8618BC
:1013200044C0853731F4232D2F7EB22E2AE030E0E1
:1013300025C0932D997FB92E8F36C1F018F48835CA
:1013400079F0AEC0803719F0883721F0A9C0E92FB5
:10135000E061BE2EB4FE0DC0FB2DF460BF2E09C0AF
:1013600034FE0AC0292F2660B22E06C028E030E0E5
:1013700005C020E130E002C020E132E0F801B7FE14
:1013800007C060817181828193810C5F1F4F06C00D
:101390006081718180E090E00E5F1F4FA30124D433
:1013A000882E8618FB2DFF773F2E36FE0DC0232D8D
:1013B0002E7FA22E891458F434FE0BC032FC09C0D3
:1013C000832D8E7EA82E05C0B82CA32C03C0B82C6C
:1013D00001C0B92CA4FE0FC0FE01E80DF11D8081F3
:1013E000803321F49A2D997EA92E09C0A2FE06C051
:1013F000B394B39404C08A2D867809F0B394A3FC07
:1014000010C0A0FE06C0B21480F4280C922C9B18C9
:101410000DC0B21458F4B60180E290E090D3B394BA
:10142000F8CFB21418F42B1802C0982C212CA4FE6B
:101430000FC0B60180E390E082D3A2FE16C0A1FCEB
:1014400003C088E790E002C088E590E0B6010CC0D8
:101450008A2D867851F0A1FE02C08BE201C080E2A5
:10146000A7FC8DE2B60190E06AD3891430F4B6018E
:1014700080E390E064D39A94F8CF8A94F301E80D66
:10148000F11D8081B60190E05AD38110F6CF222061
:1014900009F44ECEB60180E290E051D32A94F7CF02
:1014A000F6018681978102C08FEF9FEF2B960FB6D2
:1014B000F894DEBF0FBECDBFDF91CF911F910F918A
:1014C000FF90EF90DF90CF90BF90AF909F908F9064
:1014D0007F906F905F904F903F902F90089520FDE8
:1014E00009C0FC0123FD05C022FF02C07383628393
:1014F00051834083089544FD17C046FD17C0AB01DA
:10150000BC01DA01FB01AA0FBB1FEE1FFF1F1094E5
:10151000D1F74A0F5B1F6E1F7F1FCB01BA01660F09
:10152000771F881F991F09C033E001C034E0660FA0
:10153000771F881F991F3150D1F7620F711D811DD0
:10154000911D08950F931F93CF93DF938C01C801D2
:10155000B8D2EC0197FD06C08BD2892BC1F7B80138
:10156000CE0129D3CE01DF91CF911F910F91089524
:101570008F929F92AF92BF92EF92FF920F931F9321
:10158000CF93DF938C01D62F7A01B22E9AD29C0191
:1015900033272B32310531F02D32310559F48B2DA3
:1015A0008068B82ED15011F480E061C0C80189D2A2
:1015B00097FDFACFCB2DCD7F2B2D2073F9F48033FF
:1015C000E9F4AA24AA94AD0E09F43EC0C80179D268
:1015D00097FD3AC09C012F7D33272835310541F412
:1015E000C264D25089F1C8016CD297FF07C02CC0E9
:1015F000B6FE02C0C26001C0C261DA2D812C912CFE
:10160000540120ED280F283078F0C4FF03C0B80142
:10161000D2D217C02A3040F0C6FFF9CF2F7D3FEE5F
:10162000320F3630A0F727504C2FC501B40163DFCD
:101630004B015C01C260D15051F0C80142D297FF0A
:10164000E0CFC1FD04C0B0CF812C912C5401C7FF65
:1016500008C0B094A09490948094811C911CA11C0B
:10166000B11C2C2FB501A401C70139DF81E0DF9146
:10167000CF911F910F91FF90EF90BF90AF909F90EF
:101680008F9008955F926F927F928F929F92AF9208
:10169000BF92CF92DF92EF92FF920F931F93CF935F
:1016A000DF93CDB7DEB7A0970FB6F894DEBF0FBEBD
:1016B000CDBF5C01962E7A01F9018E010F5F1F4F9D
:1016C000680180E2D8011D928A95E9F7D501139649
:1016D0008C9080E090E0612C712C30E061E070E053
:1016E00083FC259183FE21918F01522E211103C08D
:1016F00080E090E090C02E3511F4009751F1432F17
:1017000050E0481759073CF42D3559F12D3219F4A2
:10171000772009F103C0772009F468C0452D46956C
:1017200046954695D601A40FB11D452D47708B01F6
:1017300002C0000F111F4A95E2F7A8015C91452BEA
:101740004C93651459F0561410F45394E7CF5A94FF
:10175000E5CF31E004C07724739401C0712C019669
:10176000BFCF772019F08E8180628E83311103C044
:101770008824839417C0F6019E012F5D3F4F80811E
:10178000809581932E173F07D1F7F2CFE114F10432
:1017900029F0D7018C93F70131967F019A94812C1F
:1017A0009920E9F0C5018DD197FD17C0FC01FF27F5
:1017B00023E0F595E7952A95E1F7EC0DFD1D2081D5
:1017C00030E0AC014770552702C0359527954A9502
:1017D000E2F720FDDBCFB501EED1811089CFE11416
:1017E000F10411F0D7011C92C80115C0422F469593
:1017F00046954695D601A40FB11D422F47708B0127
:1018000002C0000F111F4A95E2F7A8015C91452B19
:101810004C93622EA4CFA0960FB6F894DEBF0FBEF5
:10182000CDBFDF91CF911F910F91FF90EF90DF908F
:10183000CF90BF90AF909F908F907F906F905F9070
:1018400008955F926F927F928F929F92AF92BF9214
:10185000CF92DF92EF92FF920F931F93CF93DF937C
:101860006C01EB015A01FC0117821682512CF60122
:10187000E380FE01E3FC8591E3FE8191182FEF01E7
:10188000882309F4E0C090E0F3D0892B19F0C60159
:1018900059DEEDCF153241F4FE01E3FC1591E3FE74
:1018A0001191EF01153271F4C6010BD197FDC9C03A
:1018B000412F50E09C01332724173507C1F2B601B0
:1018C0007AD1C1C01A3239F4E3FC1591E3FE1191CB
:1018D000EF0101E001C000E0F12C20ED210F2A30E2
:1018E00078F402606F2D70E080E090E040E203DE6B
:1018F000F62EFE01E3FC1591E3FE1191EF01EDCF11
:1019000001FF03C0F11003C09EC0FF24FA941836F3
:1019100019F01C3651F010C0FE01E3FC1591E3FEF6
:101920001191EF01183641F408600460FE01E3FCF8
:101930001591E3FE1191EF01112309F484C0612F89
:1019400070E08CE890E09CD0892B09F47CC000FD0D
:1019500007C0F50180809180C50102965C0102C03C
:10196000812C912C1E3649F4F6014681578160E0A6
:1019700070E0202FC401B3DD7ACF1336A1F401FD4E
:1019800002C0FF24F394C6019CD097FD5AC0811475
:10199000910429F0F4018083C40101964C01FA946A
:1019A000F110F1CF4AC01B3551F49E01A4016F2DF7
:1019B000C60168DEEC01892B09F03FC039C0C601C1
:1019C000C1DD97FD3EC01F3649F128F4143621F1E0
:1019D000193639F125C0133771F01537E9F020C0F9
:1019E0008114910429F0F4016082C40101964C0134
:1019F000FA94FF2059F0C60164D03C0197FD06C05F
:101A000037D0892B69F3B601C301D5D08114910475
:101A1000A1F0F401108211C0006203C0006101C096
:101A20000064202FA4016F2DC601A2DD811105C025
:101A3000F6018381807329F406C000FD18CF53940A
:101A400016CF552019F0852D90E002C08FEF9FEF43
:101A5000DF91CF911F910F91FF90EF90DF90CF908A
:101A6000BF90AF909F908F907F906F905F90089500
:101A7000911118C1803219F089508550D0F708951E
:101A8000FC010590061621F00020D9F7C001089549
:101A90003197CF010895FC0105906150704001100D
:101AA000D8F7809590958E0F9F1F0895FC01615087
:101AB000704001900110D8F7809590958E0F9F1F70
:101AC0000895CF93DF93EC012B8120FF33C026FFD5
:101AD0000AC02F7B2B838E819F8101969F838E83EB
:101AE0008A8190E029C022FF0FC0E881F9818081BE
:101AF000082E000C990B009719F420622B831AC052
:101B00003196F983E8830EC0EA85FB85099597FF36
:101B100009C02B81019611F080E201C080E1822B87
:101B20008B8308C02E813F812F5F3F4F3F832E83E1
:101B3000992702C08FEF9FEFDF91CF9108950F9308
:101B40001F93CF93DF93FB01238121FD03C08FEF10
:101B50009FEF2CC022FF16C046815781248135811A
:101B60004217530744F4A081B1819D012F5F3F4F7D
:101B7000318320838C93268137812F5F3F4F3783BA
:101B8000268314C08B01EC01FB010084F185E02D5C
:101B90000995892BE1F6D80116968D919C9117979E
:101BA000019617969C938E931697CE01DF91CF9155
:101BB0001F910F910895FB01238120FF12C026FD84
:101BC00010C08F3F3FEF930761F082832F7D206429
:101BD0002383268137812150310937832683992732
:101BE00008958FEF9FEF0895FA01AA27283051F149
:101BF000203181F1E8946F936E7F6E5F7F4F8F4F3E
:101C00009F4FAF4FB1E03ED0B4E03CD0670F781F9C
:101C1000891F9A1FA11D680F791F8A1F911DA11D81
:101C20006A0F711D811D911DA11D20D009F46894BA
:101C30003F912AE0269F11243019305D3193DEF662
:101C4000CF010895462F4770405D4193B3E00FD018
:101C5000C9F7F6CF462F4F70405D4A3318F0495D03
:101C600031FD4052419302D0A9F7EACFB4E0A695E6
:101C70009795879577956795BA95C9F70097610508
:101C8000710508959B01AC010A2E0694579547955E
:101C900037952795BA95C9F7620F731F841F951F53
:0E1CA000A01D0895992788270895F894FFCF76
:101CAE0030000000000000000000000000000000F6
:101CBE000000000032001801FE01C6021E006E0078
:101CCE00B90004014F01A401E00126022602190009
:101CDE005F00A000E60027016D01AE01EF012602B4
:101CEE0019005F00A000E60027016D01AE01EF01B3
:101CFE00260219005F00A000E60027016D01AE016B
:101D0E00EF012602010001000000000100000000AA
:101D1E000000FD0700000000000200000000F607B2
:101D2E000000000053656C656374206D6F64652060
:101D3E003A20737465705F72656C2831292C20739C
:101D4E007465705F6162732832292C207365727618
:101D5E006F5F636F6E2833292C207175697428713B
:101D6E00293F002573003100320033007100696E87
:101D7E00707574202731272C202732272C202733EB
:101D8E0027206F72202771270D005820636F6F7206
:101D9E0064696E617465203A2000796F75722069EE
:101DAE006E707574203A202535640D0A0D0A00599F
:101DBE0020636F6F7264696E617465203A20005BF8
:101DCE00782C795D203D205B2535642C20253564EB
:101DDE005D0D0A0068616E6420203A2000777269FA
:101DEE007374203A2000656C626F77203A200044AD
:101DFE006F20796F752077616E7420746F2070720A
:101E0E006F636565643F5B792F6E5D0079006E00D0
:101E1E00696E70757420277927206F7220276E27C0
:101E2E00206F6E6C790D0063757272656E74205042
:101E3E006F736974696F6E203A205B2534642C20B1
:101E4E002534645D0D0A0D0A004D6F766575702898
:101E5E0031292C204D6F7665646F776E2832292CD0
:101E6E0020676F746F4D61696E4D656E75287129AF
:101E7E003F0072656164793F28616E7920776F72D9
:101E8E006429203A200073746F7028616E79207770
:101E9E006F726429203A2000696E707574202731A4
:101EAE00272C20273227206F72202771270D00281C
:101EBE00666F72557365722940407175697420663C
:101ECE006F7220726F77203D3D203440400D002808
:101EDE00666F72557365722977616974696E6720D2
:101EEE00666F72205B726F772C636F6C756D6E5DB3
:101EFE00203A200025752C25750028666F725573C3
:101F0E00657229776F726E6720696E70757400281E
:101F1E00666F72557365722971756974202D200074
:101F2E0028666F7255736572295B25752C25755D54
:101F3E00202D2000446F20796F752077616E7420FC
:101F4E00746F2070726F636565643F5B792F6E5D91
:101F5E00203A20006C6F636174696F6E203A205BCB
:101F6E0025752C25755D0D0A000D0A0D0A212121FE
:101F7E0021494E54302073657421212121210D0AEF
:101F8E000D00546573746D6F64652831292C2061C2
:101F9E0075746F6D6F64652832292C206D616E75B6
:101FAE00616C6D6F64652833292C207365744865E8
:101FBE00726541735B302C305D2834293F0034004C
:101FCE00696E707574202731272C202732272C201C
:0C1FDE00273327206F72202734270D00C6
:00000001FF
