S01300006175746F446973706C61792E7372656382
S113000045C000004BC0000049C0000047C00000CC
S113001045C0000043C0000041C000003FC00000D4
S11300203DC000003BC0000039C0000037C00000E4
S113003035C0000033C0000031C000002FC00000F4
S11300402DC000002BC0000029C0000027C0000004
S113005025C0000023C0000021C000001FC0000014
S11300601DC000001BC0000019C0000017C0000024
S113007015C0000013C0000011C000000FC0000034
S11300800DC000000BC0000009C0000011241FBEF9
S1130090CFEFD0E1DEBFCDBF77D0DAC0B1CF83B729
S11300A0806183BF83B78F7D83BF089583B78F7EBD
S11300B083BF83B7806283BF089587B3806187BBA2
S11300C083B7886083BFF2DF83B7816083BF83B760
S11300D0826083BF8DE781BF089585B5806185BD4A
S11300E085B58F7D85BD089585B58F7E85BD85B524
S11300F0806285BD089587B3806887BB85B58860B5
S113010085BDF2DF85B5816085BD85B5826085BD1D
S11301108DE783BD089582B1886382B9EBE8F0E08E
S1130120808182608083AAE8B0E08C9188618C939E
S113013080818F7B808380818068808380818F7EB3
S1130140808380818062808380818F7E80838081B0
S1130150806280838C9182608C9380E29EE4909391
S1130160870080938600909385008093840080E4C8
S11301709CE990938300809382008FE39CE99093A1
S113018081008093800008958AB381608ABB84B320
S1130190866084BB84B3886184BB85B38B7F85BB55
S11301A085B38F7E85BB89DFA6DFB5DF2FEF83E2C2
S11301B094EF215080409040E1F700C000006FDFD1
S11301C08CDF85B3826085BB00E21EE41BBD0ABDE3
S11301D085B3886085BB81DF8BB38E7F8BBB2FEFAC
S11301E083ED90E3215080409040E1F700C000008F
S11301F07BDFC0E4DCE9DBBDCABD2FEF83ED90E318
S1130200215080409040E1F700C0000085B38D7F0D
S113021085BB1BBD0ABD85B3877F85BB5EDF8BB302
S113022081608BBB2FEF83ED90E3215080409040A1
S1130230E1F700C0000058DFDBBDCABD2FEF83ED3E
S113024090E3215080409040E1F700C00000B9CF16
S1070250F894FFCF4C
S9030000FC
