S01300006175746F446973706C61792E7372656382
S11300004BC000006EC7000065C0000063C0000064
S113001061C000005FC000005DC000005BC0000064
S113002059C0000057C0000055C0000053C0000074
S113003051C000004FC000007EC700004BC000004C
S113004049C0000047C0000045C0000043C0000094
S113005041C000003FC000003DC000003BC00000A4
S113006039C0000037C0000035C0000033C00000B4
S113007031C000002FC000002DC000002BC00000C4
S113008029C0000027C0000025C000006364696E19
S11300906F70737578585B0011241FBECFEFD0E1E9
S11300A0DEBFCDBF14E0A0E0B1E0E6E3FEE100E096
S11300B00BBF02C007900D92AA39B107D9F724E00B
S11300C0AAE9B4E001C01D92A83AB207E1F78DD7BE
S11300D00C94190F95CF8F929F92AF92BF92CF92AB
S11300E0DF92EF92FF920F931F93CF93DF93CDB7DD
S11300F0DEB72A970FB6F894DEBF0FBECDBFC12C72
S1130100D12C84E891E09F938F930E94DB0880E0D8
S113011091E09F938F9383EC91E09F938F930E9440
S1130120230966EC71E080E091E00E94C8080F901A
S11301300F900F900F900F900F90892BF9F068ECAF
S113014071E080E091E00E94C808892BE9F06AEC34
S113015071E080E091E00E94C808892BE1F06CEC2A
S113016071E080E091E00E94C808892BE1F08EECF8
S113017091E00E94F30801E010E01AC0EE24E39439
S1130180F12C00E010E014C06894EE24E1F8F12CA6
S113019000E010E00DC00F2EF3E0EF2EF12CF02D57
S11301A000E010E005C000E010E0CC24C394D12CA2
S11301B00115110509F0A5CFC114D10409F0B7C088
S11301C0C7010197029708F047C08AEE91E09F9318
S11301D08F93F1D7CE0101969F938F930F2EF7E55E
S11301E08F2EF3E09F2EF02D9F928F920E94230971
S11301F08A818F9389818F930F2EFAEFAF2EF1E0CE
S1130200BF2EF02DBF92AF92D6D78FE092E09F938E
S11302108F93D1D7CE0103969F938F939F928F9202
S11302200E9423098C818F938B818F93BF92AF920D
S1130230C2D78C818F938B818F938A818F9389818D
S11302408F938FE192E09F938F93B5D70FB6F89475
S1130250DEBF0FBECDBF33C093E0E916F10479F5DC
S113026084E392E09F938F93A6D7CE0105969F9344
S11302708F930F2EF7E5AF2EF3E0BF2EF02DBF9234
S1130280AF92E1D78DE392E09F938F9394D7CE0101
S113029007969F938F93BF92AF92D5D786E492E04F
S11302A09F938F9388D7CE0109969F938F93BF9284
S11302B0AF92C9D70FB6F894DEBF0FBECDBF8FE49F
S11302C092E09F938F9377D780E091E09F938F93F1
S11302D083EC91E09F938F93B6D76CE672E080E055
S11302E091E056D70F900F900F900F900F900F90B2
S11302F0892B69F06EE672E080E091E049D7892BA2
S113030041F080E792E06FD781E090E003C0C8013C
S113031001C0C801892B99F68EE194E064D76CE69C
S113032072E080E091E034D7892B09F0EACEC11461
S1130330D10409F063C091E0E916F10439F56B8149
S11303407C8189819A8190D44DD580919F048F932B
S113035080919E048F938091A1048F938091A00437
S11303608F9387E892E09F938F9325D72FEF83EDA8
S113037090E3215080409040E1F700C000000F90CE
S11303800F900F900F900F900F90BBCE22E0E216CB
S1130390F10439F56B817C8189819A81BED422D59F
S11303A080919F048F9380919E048F938091A104E8
S11303B08F938091A0048F9387E892E09F938F930B
S11303C0FAD68FEF93ED20E3815090402040E1F77F
S11303D000C000000F900F900F900F900F900F909F
S11303E090CE83E0E816F10409F08BCE49855A8556
S11303F06F8178858D819E8182D383CE2A960FB6B4
S1130400F894DEBF0FBECDBFDF91CF911F910F9146
S1130410FF90EF90DF90CF90BF90AF909F908F9020
S11304200895EF92FF920F931F93CF93DF938C0164
S1130430EB0186D32FEF39E688E12150304080402C
S1130440E1F700C0000062ED70E08CE890E065D454
S1130450C9D49FEFE9E6F8E19150E040F040E1F7BC
S113046000C00000A2D362ED70E080E090E055D4BB
S1130470B9D42FEF33EC89E0215030408040E1F7CC
S113048000C0000084D39FEFE3ECF9E09150E0401A
S1130490F040E1F700C0000068E270E080E090E026
S11304A0E3D3A0D42FEF31EE84E0215030408040DC
S11304B0E1F700C0000060E070E084E690E0D4D38F
S11304C091D49FEFE1EEF4E09150E040F040E1F789
S11304D000C00000F801EE0FFF1FEE0FFF1FEE0F2C
S11304E0FF1FE00FF11FEC0FFD1FEE0FFF1FE45E77
S11304F0FE4F808191818B3F91050CF04BC0C80168
S1130500880F991F9C012C5E3E4F7901F90160818F
S113051071818AEF90E001D465D4FFEF23EC39E0D8
S1130520F15020403040E1F700C0000045D38FEF88
S113053099E6E8E181509040E040E1F700C0000016
S113054049D3FFEF29E638E1F15020403040E1F78C
S113055000C00000F70160817181F801EE0FFF1FF8
S1130560EE0FFF1FEE0FFF1FE00FF11FEC0FFD1F3B
S1130570EE0FFF1FE45EFE4F80819181CED332D413
S1130580FFEF23EC39E0F15020403040E1F700C0A8
S1130590000026C0F801EE0FFF1FEC5EFE4F6081E5
S11305A07181BBD31FD48FEF93ECE9E0815090406D
S11305B0E040E1F700C00000FFD2FFEF29E638E198
S11305C0F15020403040E1F700C0000003D38FEF2A
S11305D099E6E8E181509040E040E1F700C0000076
S11305E0DDD2FFEF21EE34E0F15020403040E1F75E
S11305F000C000006EEC7FEF80E090E035D3F2D3D2
S11306008FEF93ECE9E081509040E040E1F700C0C7
S11306100000CBD2FFEF2DE339E4F150204030400D
S1130620E1F700C0000062E370E080E090E01CD3DA
S1130630D9D38FEF93ECE9E081509040E040E1F7AB
S113064000C00000C801880F991F880F991F880FE8
S1130650991F800F911FC80FD91FCC0FDD1FC45ED7
S1130660DE4F888199818B3F9105A4F4000F111FFF
S1130670F801EC5EFE4F608171818AEF90E04DD30A
S1130680B1D3FFEF23EC39E0F15020403040E1F7E3
S113069000C0000075D28FEF93ECE9E081509040E8
S11306A0E040E1F700C000009CD2FFEF29E638E10A
S11306B0F15020403040E1F700C0000084D28FEFB9
S11306C099E6E8E181509040E040E1F700C0000085
S11306D0DF91CF911F910F91FF90EF9008950F93A9
S11306E01F93CF93DF9388D297D23BD289EA92E0CB
S11306F09F938F9360D580E091E09F938F9383ECD9
S113070091E09F938F939FD566EC71E080E091E038
S11307103FD50F900F900F900F900F900F90892B53
S113072031F582ED92E09F938F9345D500E011E07F
S11307301F930F93C3ECD1E0DF93CF9384D558D2AA
S11307405FD276D286EE92E09F938F9334D51F9337
S11307500F93DF93CF9377D572D24ED28DB79EB7D6
S11307600C960FB6F8949EBF0FBE8DBFBFCF68EC3A
S113077071E080E091E00CD5892B31F582ED92E0B7
S11307809F938F9318D500E011E01F930F93C3EC50
S1130790D1E0DF93CF9357D52BD236D249D286EE10
S11307A092E09F938F9307D51F930F93DF93CF937B
S11307B04AD545D221D28DB79EB70C960FB6F89480
S11307C09EBF0FBE8DBF92CF6CEC71E080E091E0D4
S11307D0DFD4892B21F088EF92E005D587CFB0D103
S11307E007D216D2DF91CF911F910F9108951092E5
S11307F0A1041092A00410929F0410929E040895E4
S11308000F931F93CF93DF9300D000D0CDB7DEB703
S1130810EEDF8EE690E0E2D48EE194E0E4D48FE063
S113082093E0E1D48FE293E09F938F93C4D4CE01FD
S113083003969F938F9302979F938F9384E593E0FE
S11308409F938F9300D50FB6F894DEBF0FBECDBF34
S113085024C082E790E0C2D48EE194E0C4D48AE557
S113086093E09F938F93A7D48FE693E0BCD48FE259
S113087093E09F938F939FD4CE0103969F938F937E
S113088002979F938F9384E593E09F938F93DBD498
S11308900FB6F894DEBF0FBECDBF89819A8105974C
S11308A0C0F68B819C810997A0F600E010E0898155
S11308B09A818430910551F48BE893E09F938F9350
S11308C07AD40F900F9001E010E011C02C812F9387
S11308D02B812F939F938F938CE993E09F938F9316
S11308E06AD40F900F900F900F900F900F9080EBA1
S11308F093E09F938F935FD480E091E09F938F93D5
S113090083EC91E09F938F939ED46CE672E080E039
S113091091E03ED40F900F900F900F900F900F9096
S1130920892B69F06EE672E080E091E031D4892B86
S113093049F080E792E057D481E090E005C080E080
S113094090E002C080E090E0892B09F0B0CF8EE106
S113095094E049D46CE672E080E091E019D4892BEC
S113096009F057CF0130110589F189819A81FC0181
S1130970EE0FFF1FEC5EFE4F21812F9320812F93FA
S1130980FC01EE0FFF1FEE0FFF1FEE0FFF1FE80F1E
S1130990F91F8B819C81E80FF91FEE0FFF1FE45EA6
S11309A0FE4F81818F9380818F9380ED93E09F939D
S11309B08F9301D46B817C8189819A8132DD0F9080
S11309C00F900F900F900F900F9023CF0F900F90D8
S11309D00F900F90DF91CF911F910F910895CF93B6
S11309E0DF9300D000D0CDB7DEB7E6E7F1E08AE9C7
S11309F098E0918780871386128682E08383E8E6F5
S1130A00F1E0118610868EE998E09387828781E071
S1130A108383EDDE80919B008823C4F4E6E7F1E054
S1130A208AEB98E0918780871386128682E083831D
S1130A30E8E6F1E01186108681EC98E093878287DE
S1130A4081E0838385EE93E0CED352C08EE690E0BE
S1130A50C5D3CE0103969F938F9302979F938F9351
S1130A6084E593E09F938F93EED30F900F900F90B4
S1130A700F900F900F9015C082E790E0AFD3CE0196
S1130A8003969F938F9302979F938F9384E593E0AC
S1130A909F938F93D8D30F900F900F900F900F9038
S1130AA00F9089819A818530910530F76B817C8123
S1130AB06930710508F784309105C1F4E6E7F1E087
S1130AC08AEB98E0918780871386128682E083837D
S1130AD0E8E6F1E01186108681EC98E0938782873E
S1130AE081E0838385EE93E07ED302C09ADC92CFCB
S1130AF00F900F900F900F90DF91CF910895009772
S1130B0041F0880F991F880F991F90938700809355
S1130B1086006115710541F0660F771F660F771F18
S1130B2070938500609384004115510541F0440F92
S1130B30551F440F551F509383004093820008951E
S1130B4080E89CE0909387008093860090938500D2
S1130B508093840080E19EE09093830080938200E0
S1130B60089580EE9EE29093870080938600909390
S1130B70850080938400909383008093820008957D
S1130B8080E89CE09093870080938600089588EF26
S1130B909CE09093870080938600089588E49DE00C
S1130BA09093870080938600089588E89EE0909350
S1130BB0870080938600089580EB94E090938500ED
S1130BC080938400089580E89CE09093850080934E
S1130BD08400089588ED94E09093830080938200CC
S1130BE0089580E19EE090938300809382000895AD
S1130BF088B38B7F88BB089588B3846088BB0895CD
S1130C0088B3877F88BB089588B3886088BB0895BC
S1130C1088B38F7D88BB089588B3806288BB0895AC
S1130C2088B38F7B88BB089588B3806488BB08959C
S1130C3083B7806183BF83B78F7D83BF089583B7F4
S1130C408F7E83BF83B7806283BF089585B580613B
S1130C5085BD85B58F7D85BD089585B58F7E85BDA0
S1130C6085B5806285BD08950F931F93CF93DF935D
S1130C70EC018B018091A0049091A1048C0F9D1F25
S1130C809093A1048093A00480919E0490919F046A
S1130C90860F971F90939F0480939E04DD2314F086
S1130CA0BFDF04C0C1DFD195C195D109112314F070
S1130CB0A7DF04C0A9DF1195019511091DBC1CBC57
S1130CC0209729F0C3DF1092670110926601011585
S1130CD0110529F0ADDF1092650110926401CE0177
S1130CE0880F991FCC0FDD1FCC0FDD1FCC0FDD1F2C
S1130CF0C80FD91FD0939D04C0939C0429E1209F61
S1130D00C001219F900D112490939B0480939A0419
S1130D10DF91CF911F910F910895CF92DF92EF92BF
S1130D20FF920F931F93CF93DF932091A0043091F0
S1130D30A1046C01C21AD30AE60120919E043091E9
S1130D409F047B01E21AF30A87019093A104809324
S1130D50A00470939F0460939E04DD2314F060DF6D
S1130D6005C062DFCC27DD27CC19DD09112314F07F
S1130D7047DF05C049DF002711270E191F091DBCD5
S1130D801CBC209729F062DF109267011092660163
S1130D900115110529F04CDF1092650110926401D0
S1130DA0CE01880F991FCC0FDD1FCC0FDD1FCC0F98
S1130DB0DD1FC80FD91FD0939D04C0939C0429E163
S1130DC0209FC001219F900D112490939B04809338
S1130DD09A04DF91CF911F910F91FF90EF90DF90D4
S1130DE0CF9008958091660190916701892BD1F38A
S1130DF08091640190916501892BA1F3089587B3D3
S1130E00806187BB83B7886083BF83B78F7E83BFCE
S1130E1083B7806283BF83B7816083BF83B78260F7
S1130E2083BF8CE781BF089587B3806887BB85B58E
S1130E30886085BD85B58F7E85BD85B5806285BD9D
S1130E4085B5816085BD85B5826085BD8CE783BD30
S1130E5008958FB582608FBD8EB588618EBD8EB5C5
S1130E6081608EBD8FE79EE397BD86BD87B78460A2
S1130E7087BF089582B1886382B9EBE8F0E080818E
S1130E8082608083AAE8B0E08C9188618C93808131
S1130E908F7B808380818068808380818F7E808344
S1130EA080818062808380818B7F80838081886061
S1130EB080838C9182608C9380E49CE9909387007A
S1130EC080938600909385008093840090938300A0
S1130ED0809382008FE39CE990938100809380004B
S1130EE008951F920F920FB60F9211240BB60F9212
S1130EF02F933F934F935F936F937F938F939F931E
S1130F00AF93BF93EF93FF932CDE87E094E06BD114
S1130F10FF91EF91BF91AF919F918F917F916F91CD
S1130F205F914F913F912F910F900BBE0F900FBE89
S1130F300F901F9018951F920F920FB60F921124C5
S1130F400BB60F922F933F934F935F936F937F93BF
S1130F508F939F93AF93BF93EF93FF9380919C04E0
S1130F6090919D048F3F2FEF920729F00197909362
S1130F709D0480939C0480919A0490919B048F3FDC
S1130F802FEF920729F0019790939B0480939A0482
S1130F9080919C0490919D04892B39F45EDE81E05C
S1130FA090E0909367018093660180919A049091F8
S1130FB09B04892B39F443DE81E090E09093650132
S1130FC080936401FF91EF91BF91AF919F918F91B5
S1130FD07F916F915F914F913F912F910F900BBE35
S1130FE00F900FBE0F901F901895CF93DF93CDB73E
S1130FF0DEB764970FB6F894DEBF0FBECDBF87B3DC
S11310008C6087BB87B3806687BB88B38B7F88BBC4
S113101088B38F7D88BBF3DE07DF2CDF1ADF87B749
S1131020846087BF81B38E7F81BB82B3816082BBC2
S113103089B7816089BFEAE6F0E0808182608083BD
S1131040789480D0E2EAF4E086E791E093838283A7
S113105088E691E0918380835AD072DD2FEF83E29A
S113106094EF215080409040E1F700C0000080E3FD
S113107090E09A838983FE01339682E1DF011D9219
S11310808A95E9F780E294E09F938F9394D08E0140
S11310900F5F1F4F1F930F9383EC91E09F938F93E8
S11310A0D2D066EC71E0C80173D00F900F900F900E
S11310B00F900F900F90892B11F40DD8E3CF68ECAB
S11310C071E0CE01019664D0892B11F499DBDACF5B
S11310D06AEC71E0CE0101965BD0892B11F4FFDA42
S11310E0D1CF69E774E0CE01019652D0892B11F477
S11310F07EDBC8CF6BE774E0CE01019649D0892B23
S113110011F46DDCBFCF8DE794E06DD0BBCF1092AE
S113111090008FEC89B98BB182608BB9E5E9F0E07E
S11311208081866080838AB180618AB98AB188604F
S11311308AB908955D9BFECF8CB908955F9BFECF5D
S11311408CB10895109298008FEC80939900EBE98C
S1131150F0E0808182608083EDE9F0E08081866048
S11311608083EAE9F0E08081806180838081886007
S11311708083089590919B0095FFFCCF80939C0001
S1131180089580919B008823E4F780919C00089542
S1131190FB01DC018D9181341CF08B350CF4805EF5
S11311A0619161341CF06B350CF4605E861B611137
S11311B089F3990B0895CF93DF93CDB7DEB7AE01D2
S11311C04B5F5F4FFA0161917191AF018091A4046B
S11311D09091A5044BD0DF91CF9108956091A40420
S11311E07091A50470C50F931F93CF93DF93E09183
S11311F0A404F091A504238121FF1BC08C01D0E03D
S1131200C0E0F80181918F016091A4047091A5045C
S1131210DB011896ED91FC911997882331F009951B
S1131220892B79F3DFEFCFEFECCF8AE00995892B97
S113123019F08FEF9FEF02C08D2F9C2FDF91CF917C
S11312401F910F910895CF93DF93CDB7DEB7AE0111
S11312504B5F5F4FFA0161917191AF018091A204DC
S11312609091A304B2D3DF91CF9108952F923F922E
S11312704F925F926F927F928F929F92AF92BF92A2
S1131280CF92DF92EF92FF920F931F93CF93DF934E
S1131290CDB7DEB72B970FB6F894DEBF0FBECDBF28
S11312A06C017B018A01FC0117821682838181FF14
S11312B0BFC1CE0101963C01F6019381F70193FD74
S11312C0859193FF81917F01882309F4ADC1853213
S11312D039F493FD859193FF81917F01853221F447
S11312E0B60190E0F0D4E8CF912C212C312CFFE111
S11312F0F315D8F08B3279F038F4803279F08332F8
S1131300A1F4232D20611DC08D3261F0803369F476
S1131310232D216016C0832D8260382EE32DE460D6
S11313203E2E2AC0F32DF8601DC037FC2DC020EDE1
S1131330280F2A3040F08E32B9F436FC75C1232DC3
S11313402064322E19C036FE06C08AE0989E200D15
S11313501124922E11C0EAE02E9E200D1124222E7B
S1131360F32DF0623F2E08C08C3621F4832D806863
S1131370382E02C0883641F4F70193FD859193FF1E
S113138081917F018111B3CF982F9F7D9554933024
S113139028F40C5F1F4F9FE399830DC0833631F00F
S11313A0833771F0833509F055C020C0F80180817E
S11313B089830E5F1F4F88248394912C530112C09C
S11313C02801F2E04F0E511CF801A080B18036FED6
S11313D003C0692D70E002C06FEF7FEFC5012AD40E
S11313E04C018201F32DFF773F2E15C0280122E026
S11313F0420E511CF801A080B18036FE03C0692D55
S113140070E002C06FEF7FEFC50109D44C01F32DEA
S1131410F0683F2E820133FC19C0822D90E08816BB
S11314209906A0F4B60180E290E04DD42A94F5CF59
S1131430F50137FC859137FE81915F01B60190E09B
S113144042D421102A9421E0821A91088114910433
S113145079F7E1C0843611F0893639F5F80137FEA1
S113146007C060817181828193810C5F1F4F08C026
S113147060817181072E000C880B990B0E5F1F4F42
S1131480F32DFF763F2E97FF09C0909580957095B8
S113149061957F4F8F4F9F4FF0683F2E2AE030E0D9
S11314A0A30166D4882E861844C0853731F4232DD1
S11314B02F7EB22E2AE030E025C0932D997FB92EDD
S11314C08F36C1F018F4883579F0AEC0803719F042
S11314D0883721F0A9C0E92FE061BE2EB4FE0DC00B
S11314E0FB2DF460BF2E09C034FE0AC0292F2660EC
S11314F0B22E06C028E030E005C020E130E002C092
S113150020E132E0F801B7FE07C060817181828179
S113151093810C5F1F4F06C06081718180E090E071
S11315200E5F1F4FA30124D4882E8618FB2DFF774E
S11315303F2E36FE0DC0232D2E7FA22E891458F483
S113154034FE0BC032FC09C0832D8E7EA82E05C04C
S1131550B82CA32C03C0B82C01C0B92CA4FE0FC016
S1131560FE01E80DF11D8081803321F49A2D997ECE
S1131570A92E09C0A2FE06C0B394B39404C08A2D58
S1131580867809F0B394A3FC10C0A0FE06C0B21480
S113159080F4280C922C9B180DC0B21458F4B60198
S11315A080E290E090D3B394F8CFB21418F42B18DF
S11315B002C0982C212CA4FE0FC0B60180E390E059
S11315C082D3A2FE16C0A1FC03C088E790E002C04B
S11315D088E590E0B6010CC08A2D867851F0A1FE12
S11315E002C08BE201C080E2A7FC8DE2B60190E06C
S11315F06AD3891430F4B60180E390E064D39A94FA
S1131600F8CF8A94F301E80DF11D8081B60190E0D2
S11316105AD38110F6CF222009F44ECEB60180E2CF
S113162090E051D32A94F7CFF6018681978102C0C6
S11316308FEF9FEF2B960FB6F894DEBF0FBECDBF92
S1131640DF91CF911F910F91FF90EF90DF90CF909A
S1131650BF90AF909F908F907F906F905F904F90CE
S11316603F902F90089520FD09C0FC0123FD05C083
S113167022FF02C07383628351834083089544FD33
S113168017C046FD17C0AB01BC01DA01FB01AA0F6C
S1131690BB1FEE1FFF1F1094D1F74A0F5B1F6E1F75
S11316A07F1FCB01BA01660F771F881F991F09C0DE
S11316B033E001C034E0660F771F881F991F315053
S11316C0D1F7620F711D811D911D08950F931F9312
S11316D0CF93DF938C01C801B8D2EC0197FD06C00B
S11316E08BD2892BC1F7B801CE0129D3CE01DF916A
S11316F0CF911F910F9108958F929F92AF92BF92B5
S1131700EF92FF920F931F93CF93DF938C01D62F09
S11317107A01B22E9AD29C0133272B32310531F053
S11317202D32310559F48B2D8068B82ED15011F427
S113173080E061C0C80189D297FDFACFCB2DCD7F5F
S11317402B2D2073F9F48033E9F4AA24AA94AD0E66
S113175009F43EC0C80179D297FD3AC09C012F7D9F
S113176033272835310541F4C264D25089F1C801C8
S11317706CD297FF07C02CC0B6FE02C0C26001C085
S1131780C261DA2D812C912C540120ED280F2830D0
S113179078F0C4FF03C0B801D2D217C02A3040F099
S11317A0C6FFF9CF2F7D3FEE320F3630A0F727501A
S11317B04C2FC501B40163DF4B015C01C260D15001
S11317C051F0C80142D297FFE0CFC1FD04C0B0CFB1
S11317D0812C912C5401C7FF08C0B094A09490941C
S11317E08094811C911CA11CB11C2C2FB501A40157
S11317F0C70139DF81E0DF91CF911F910F91FF90F5
S1131800EF90BF90AF909F908F9008955F926F92EA
S11318107F928F929F92AF92BF92CF92DF92EF927C
S1131820FF920F931F93CF93DF93CDB7DEB7A097AB
S11318300FB6F894DEBF0FBECDBF5C01962E7A01C1
S1131840F9018E010F5F1F4F680180E2D8011D92DC
S11318508A95E9F7D50113968C9080E090E0612C8D
S1131860712C30E061E070E083FC259183FE2191CE
S11318708F01522E211103C080E090E090C02E35DC
S113188011F4009751F1432F50E0481759073CF4E5
S11318902D3559F12D3219F4772009F103C0772041
S11318A009F468C0452D469546954695D601A40F82
S11318B0B11D452D47708B0102C0000F111F4A95C1
S11318C0E2F7A8015C91452B4C93651459F056142A
S11318D010F45394E7CF5A94E5CF31E004C0772451
S11318E0739401C0712C0196BFCF772019F08E81BB
S11318F080628E83311103C08824839417C0F6015B
S11319009E012F5D3F4F8081809581932E173F0765
S1131910D1F7F2CFE114F10429F0D7018C93F70148
S113192031967F019A94812C9920E9F0C5018DD1DB
S113193097FD17C0FC01FF2723E0F595E7952A954D
S1131940E1F7EC0DFD1D208130E0AC014770552717
S113195002C0359527954A95E2F720FDDBCFB50106
S1131960EED1811089CFE114F10411F0D7011C925A
S1131970C80115C0422F469546954695D601A40F39
S1131980B11D422F47708B0102C0000F111F4A95F1
S1131990E2F7A8015C91452B4C93622EA4CFA0964C
S11319A00FB6F894DEBF0FBECDBFDF91CF911F916C
S11319B00F91FF90EF90DF90CF90BF90AF909F90EA
S11319C08F907F906F905F9008955F926F927F9257
S11319D08F929F92AF92BF92CF92DF92EF92FF923B
S11319E00F931F93CF93DF936C01EB015A01FC011A
S11319F017821682512CF601E380FE01E3FC8591E7
S1131A00E3FE8191182FEF01882309F4E0C090E0F0
S1131A10F3D0892B19F0C60159DEEDCF153241F40C
S1131A20FE01E3FC1591E3FE1191EF01153271F40F
S1131A30C6010BD197FDC9C0412F50E09C0133274B
S1131A4024173507C1F2B6017AD1C1C01A3239F46C
S1131A50E3FC1591E3FE1191EF0101E001C000E008
S1131A60F12C20ED210F2A3078F402606F2D70E004
S1131A7080E090E040E203DEF62EFE01E3FC1591E7
S1131A80E3FE1191EF01EDCF01FF03C0F11003C09C
S1131A909EC0FF24FA94183619F01C3651F010C079
S1131AA0FE01E3FC1591E3FE1191EF01183641F4B8
S1131AB008600460FE01E3FC1591E3FE1191EF015F
S1131AC0112309F484C0612F70E08CE890E09CD06D
S1131AD0892B09F47CC000FD07C0F501808091804A
S1131AE0C50102965C0102C0812C912C1E3649F47A
S1131AF0F6014681578160E070E0202FC401B3DD18
S1131B007ACF1336A1F401FD02C0FF24F394C60179
S1131B109CD097FD5AC08114910429F0F40180836C
S1131B20C40101964C01FA94F110F1CF4AC01B355F
S1131B3051F49E01A4016F2DC60168DEEC01892BCE
S1131B4009F03FC039C0C601C1DD97FD3EC01F3654
S1131B5049F128F4143621F1193639F125C0133727
S1131B6071F01537E9F020C08114910429F0F401D3
S1131B706082C40101964C01FA94FF2059F0C60119
S1131B8064D03C0197FD06C037D0892B69F3B601B8
S1131B90C301D5D081149104A1F0F401108211C0C5
S1131BA0006203C0006101C00064202FA4016F2DF6
S1131BB0C601A2DD811105C0F6018381807329F479
S1131BC006C000FD18CF539416CF552019F0852D6B
S1131BD090E002C08FEF9FEFDF91CF911F910F91A3
S1131BE0FF90EF90DF90CF90BF90AF909F908F9039
S1131BF07F906F905F900895911118C1803219F011
S1131C0089508550D0F70895FC010590061621F0FF
S1131C100020D9F7C00108953197CF010895FC0140
S1131C200590615070400110D8F7809590958E0F03
S1131C309F1F0895FC016150704001900110D8F776
S1131C40809590958E0F9F1F0895CF93DF93EC019D
S1131C502B8120FF33C026FF0AC02F7B2B838E816C
S1131C609F8101969F838E838A8190E029C022FF01
S1131C700FC0E881F9818081082E000C990B009730
S1131C8019F420622B831AC03196F983E8830EC0BD
S1131C90EA85FB85099597FF09C02B81019611F010
S1131CA080E201C080E1822B8B8308C02E813F81BA
S1131CB02F5F3F4F3F832E83992702C08FEF9FEF03
S1131CC0DF91CF9108950F931F93CF93DF93FB017F
S1131CD0238121FD03C08FEF9FEF2CC022FF16C08C
S1131CE046815781248135814217530744F4A081EA
S1131CF0B1819D012F5F3F4F318320838C932681D7
S1131D0037812F5F3F4F3783268314C08B01EC014B
S1131D10FB010084F185E02D0995892BE1F6D801BA
S1131D2016968D919C911797019617969C938E9376
S1131D301697CE01DF91CF911F910F910895FB016A
S1131D40238120FF12C026FD10C08F3F3FEF930771
S1131D5061F082832F7D2064238326813781215083
S1131D60310937832683992708958FEF9FEF0895CC
S1131D70FA01AA27283051F1203181F1E8946F93B8
S1131D806E7F6E5F7F4F8F4F9F4FAF4FB1E03ED05E
S1131D90B4E03CD0670F781F891F9A1FA11D680FFC
S1131DA0791F8A1F911DA11D6A0F711D811D911D2F
S1131DB0A11D20D009F468943F912AE0269F1124A4
S1131DC03019305D3193DEF6CF010895462F477008
S1131DD0405D4193B3E00FD0C9F7F6CF462F4F7063
S1131DE0405D4A3318F0495D31FD4052419302D0C1
S1131DF0A9F7EACFB4E0A695979587957795679567
S1131E00BA95C9F700976105710508959B01AC0166
S1131E100A2E06945795479537952795BA95C9F78D
S1131E20620F731F841F951FA01D0895992788278B
S1091E300895F894FFCFB1
S1131E363000000000000000000000000000000068
S1131E460000000032001801FE01C6021E006E00EA
S1131E56B90004014F01A401E0012602260219007B
S1131E665F00A000E60027016D01AE01EF01260226
S1131E7619005F00A000E60027016D01AE01EF0125
S1131E86260219005F00A000E60027016D01AE01DD
S1131E96EF0126020100010000000001000000001D
S1131EA60000C10800000000000200000000BA089B
S1131EB60000000053656C656374206D6F646520D3
S1131EC63A20737465705F72656C2831292C20730F
S1131ED67465705F6162732832292C20736572768B
S1131EE66F5F636F6E2833292C20717569742871AE
S1131EF6293F002573003100320033007100696EFA
S1131F06707574202731272C202732272C2027335D
S1131F1627206F72202771270D005820636F6F7278
S1131F2664696E617465203A2000796F7572206960
S1131F366E707574203A202535640D0A0D0A005911
S1131F4620636F6F7264696E617465203A20005B6A
S1131F56782C795D203D205B2535642C202535645D
S1131F665D0D0A0068616E6420203A20007772696C
S1131F767374203A2000656C626F77203A2000441F
S1131F866F20796F752077616E7420746F2070727C
S1131F966F636565643F5B792F6E5D0079006E0043
S1131FA6696E70757420277927206F7220276E2733
S1131FB6206F6E6C790D0063757272656E742050B5
S1131FC66F736974696F6E203A205B2534642C2024
S1131FD62534645D0D0A0D0A004D6F76657570280B
S1131FE631292C204D6F7665646F776E2832292C43
S1131FF620676F746F4D61696E4D656E7528712922
S11320063F0072656164793F28616E7920776F724B
S11320166429203A200073746F7028616E792077E2
S11320266F726429203A2000696E70757420273116
S1132036272C20273227206F72202771270D00288E
S1132046666F7255736572294040717569742066AE
S11320566F7220726F77203D3D203440400D00287A
S1132066666F72557365722977616974696E672044
S1132076666F72205B726F772C636F6C756D6E5D25
S1132086203A200025752C25750028666F72557335
S1132096657229776F726E6720696E707574002891
S11320A6666F7255736572297175697420666F72ED
S11320B620726F77203D3D20340D0028666F7255DF
S11320C67365722971756974202D200028666F72F4
S11320D655736572295B25752C25755D202D2000A9
S11320E6446F20796F752077616E7420746F207049
S11320F6726F636565643F5B792F6E5D203A2000DD
S11321066C6F636174696F6E203A205B25752C25AC
S1132116755D0D0A000D0A20676574206F757420BD
S113212666726F6D206175746F46756C6675696C41
S11321366C4D6F64650D000D0A0D0A21212121499C
S11321464E54302073657421212121210D0A0D007E
S1132156546573744D6F64652831292C206D616E46
S113216675616C46756C66696C6C4D6F6465283276
S1132176292C206D616E75616C4D6F646528332959
S11321862C207365744865726541735B302C305D31
S11321962834292C206175746F46756C66696C6CDD
S11321A64D6F64652835293F0034003500696E702B
S11321B67574202731272C202732272C20273327F4
S10D21C6206F72202734270D00005B
S9030000FC
