:1000000045C000004BC0000049C0000047C00000D0
:1000100045C0000043C0000041C000003FC00000D8
:100020003DC000003BC0000039C0000037C00000E8
:1000300035C0000033C0000031C000002FC00000F8
:100040002DC000002BC0000029C0000027C0000008
:1000500025C0000023C0000021C000001FC0000018
:100060001DC000001BC0000019C0000017C0000028
:1000700015C0000013C0000011C000000FC0000038
:100080000DC000000BC0000009C0000011241FBEFD
:10009000CFEFD0E1DEBFCDBF71D0C8C0B1CF87B345
:1000A000806187BB83B7886083BF83B78F7E83BF40
:1000B00083B7806283BF83B7816083BF83B7826069
:1000C00083BF8CE781BF089587B3806887BB85B500
:1000D000886085BD85B58F7E85BD85B5806285BD0F
:1000E00085B5816085BD85B5826085BD8CE783BDA2
:1000F000089582B1886382B9EBE8F0E08081826084
:100100008083AAE8B0E08C9188618C9380818F7B9A
:10011000808380818068808380818F7E80838081DE
:100120008062808380818B7F8083808188608083F0
:100130008C9182608C9380E49CE9909387008093FB
:100140008600909385008093840090938300809331
:1001500082008FE39CE99093810080938000089552
:1001600083B7806183BF83B78F7D83BF089583B7D3
:100170008F7E83BF83B7806283BF08958AB3816017
:100180008ABB84B3836084BB84B3806384BB85B340
:100190008E7F85BB85B38F7E85BB81DF95DFA9DF31
:1001A0002FEF33E284EF215030408040E1F700C070
:1001B000000085B38D7F85BBD3DF9FEF23EE37E54E
:1001C000915020403040E1F700C00000D0DF85B3FF
:1001D000816085BB8AEA94ED2CE131E0815090404A
:1001E00020403040D9F7000085B38E7F85BB85B3B2
:1001F000826085BBB5DF8FEF93EE27E5815090409D
:100200002040E1F700C00000B2DF85B3816085BB0C
:100210003AEA84ED9CE121E031508040904020405A
:10022000D9F7000085B38E7F85BBC3CFF894FFCF8D
:00000001FF
