:100000004BC00000B6C6000065C0000063C0000021
:1000100061C000005FC000005DC000005BC0000068
:1000200059C0000057C0000055C0000053C0000078
:1000300051C000004FC00000C6C600004BC0000009
:1000400049C0000047C0000045C0000043C0000098
:1000500041C000003FC000003DC000003BC00000A8
:1000600039C0000037C0000035C0000033C00000B8
:1000700031C000002FC000002DC000002BC00000C8
:1000800029C0000027C0000025C000006364696E1D
:100090006F70737578585B0011241FBECFEFD0E1ED
:1000A000DEBFCDBF14E0A0E0B1E0EAE5FCE100E096
:1000B0000BBF02C007900D92A832B107D9F724E018
:1000C000A8E2B4E001C01D92A634B207E1F7D5D68C
:1000D0000C942B0E95CF87B3806187BB83B7886064
:1000E00083BF83B78F7E83BF83B7806283BF83B7AD
:1000F000816083BF83B7826083BF8CE781BF08952F
:1001000087B3806887BB85B5886085BD85B58F7EE0
:1001100085BD85B5806285BD85B5816085BD85B5A8
:10012000826085BD8CE783BD08958FB582608FBDE9
:100130008EB588618EBD8EB581608EBD8FE79EE3E2
:1001400097BD86BD87B7846087BF089582B18863F5
:1001500082B9EBE8F0E0808182608083AAE8B0E0B9
:100160008C9188618C9380818F7B80838081806873
:10017000808380818F7E8083808180628083808184
:100180008B7F80838081886080838C9182608C9358
:1001900080E49CE99093870080938600909385008B
:1001A0008093840090938300809382008FE39CE986
:1001B00090938100809380000895009741F0880F0C
:1001C000991F880F991F909387008093860061156F
:1001D000710541F0660F771F660F771F70938500DA
:1001E000609384004115510541F0440F551F440FA1
:1001F000551F5093830040938200089580E89CE04F
:10020000909387008093860090938500809384006C
:1002100080E19EE09093830080938200089580EEB9
:100220009EE2909387008093860090938500809350
:1002300084009093830080938200089580E89CE07E
:100240009093870080938600089588EF9CE09093B8
:10025000870080938600089588E49DE0909387004E
:1002600080938600089588ED9EE0909387008093A8
:100270008600089580EB94E090938500809384003D
:10028000089580E89CE09093850080938400089511
:1002900088ED94E09093830080938200089580E13C
:1002A0009EE09093830080938200089588B38B7FB3
:1002B00088BB089588B3846088BB089588B3877F1E
:1002C00088BB089588B3886088BB089588B38F7D04
:1002D00088BB089588B3806288BB089588B38F7BFC
:1002E00088BB089588B3806488BB089583B7806114
:1002F00083BF83B78F7D83BF089583B78F7E83BF0E
:1003000083B7806283BF089585B5806185BD85B55B
:100310008F7D85BD089585B58F7E85BD85B580624D
:1003200085BD08950F931F93CF93DF93EC018B014D
:1003300080913004909131048C0F9D1F9093310473
:100340008093300480912E0490912F04860F971F84
:1003500090932F0480932E04DD2314F0BFDF04C09C
:10036000C1DFD195C195D109112314F0A7DF04C0D5
:10037000A9DF1195019511091DBC1CBC209729F01E
:10038000C3DF10928301109282010115110529F03B
:10039000ADDF1092810110928001CE01880F991F6C
:1003A000CC0FDD1FCC0FDD1FCC0FDD1FC80FD91FF9
:1003B000D0932D04C0932C0429E1209FC001219FDC
:1003C000900D112490932B0480932A04DF91CF91F8
:1003D0001F910F910895CF92DF92EF92FF920F93AA
:1003E0001F93CF93DF9320913004309131046C013F
:1003F000C21AD30AE60120912E0430912F047B010A
:10040000E21AF30A870190933104809330047093C9
:100410002F0460932E04DD2314F060DF05C062DF3B
:10042000CC27DD27CC19DD09112314F047DF05C0E7
:1004300049DF002711270E191F091DBC1CBC20977E
:1004400029F062DF109283011092820101151105DB
:1004500029F04CDF1092810110928001CE01880FAB
:10046000991FCC0FDD1FCC0FDD1FCC0FDD1FC80F78
:10047000D91FD0932D04C0932C0429E1209FC001E3
:10048000219F900D112490932B0480932A04DF91D7
:10049000CF911F910F91FF90EF90DF90CF90089533
:1004A0008091820190918301892BD1F38091800109
:1004B00090918101892BA1F30895EF92FF920F9300
:1004C0001F93CF93DF93C0E0D0E0109229041092E5
:1004D000280484E891E09F938F937FD580E591E095
:1004E0009F938F9383EC91E09F938F93BED566EC9F
:1004F00071E080E591E05ED50F900F900F900F9026
:100500000F900F90892B39F481E090E0909335049F
:10051000809334042FC068EC71E080E591E04AD507
:10052000892B39F482E090E0909335048093340471
:1005300021C06AEC71E080E591E03CD5892B39F46B
:1005400083E090E0909335048093340413C06CEC06
:1005500071E080E591E02ED5892B51F08EEC91E091
:1005600054D581E090E0909329048093280402C040
:10057000C1E0D0E08091280490912904892B09F0F2
:10058000A4CF209709F0C7C080913404909135041E
:100590009C01215031092230310508F04CC08AEE0F
:1005A00091E09F938F9319D586E394E09F938F9367
:1005B0000F2EF7E5EF2EF3E0FF2EF02DFF92EF92D6
:1005C00054D5809137048F93809136048F930AEF2E
:1005D00011E01F930F9301D58FE092E09F938F93CB
:1005E000FCD48AE394E09F938F93FF92EF923DD5E2
:1005F00080913B048F9380913A048F931F930F93C4
:10060000ECD480913B048F9380913A048F93809136
:1006100037048F93809136048F938FE192E09F93FC
:100620008F93DBD48DB79EB74A960FB6F8949EBFD2
:100630000FBE8DBF30C0039771F584E392E09F93A6
:100640008F93CBD48CE394E09F938F9307E513E0D3
:100650001F930F930AD58DE392E09F938F93BDD4A0
:1006600088E394E09F938F931F930F93FED486E4C7
:1006700092E09F938F93B1D48EE394E09F938F93F6
:100680001F930F93F2D48DB79EB742960FB6F8948E
:100690009EBF0FBE8DBF10922904109228048FE4D4
:1006A00092E09F938F9399D480E591E09F938F93ED
:1006B00083EC91E09F938F93D8D46CE672E080E551
:1006C00091E078D40F900F900F900F900F900F90B3
:1006D000892B81F06EE672E080E591E06BD4892B86
:1006E00049F080E792E091D481E090E09093290472
:1006F000809328048091280490912904892B59F62D
:100700008BEC93E082D46CE672E080E591E052D409
:10071000892B09F0DACE209709F071C0809134045A
:10072000909135048130910559F560913A047091AA
:100730003B048091360490913704F4DDB1DE809162
:100740002F048F9380912E048F93809131048F9387
:10075000809130048F9387E892E09F938F933DD4EC
:100760009FEF23ED80E3915020408040E1F700C0EF
:1007700000000F900F900F900F900F900F90A5CE4C
:100780008230910559F560913A0470913B04809153
:100790003604909137041FDE83DE80912F048F93FF
:1007A00080912E048F93809131048F938091300437
:1007B0008F9387E892E09F938F930FD49FEF23ED61
:1007C00080E3915020408040E1F700C000000F908E
:1007D0000F900F900F900F900F9077CE039709F026
:1007E00074CE40913E0450913F0460913804709162
:1007F000390480913C0490913D04DFDC66CEDF91AA
:10080000CF911F910F91FF90EF9008950F931F9339
:10081000CF93DF934FDD5EDD02DD89EA92E09F93A7
:100820008F93DBD380E591E09F938F9383EC91E0EE
:100830009F938F931AD466EC71E080E591E0BAD370
:100840000F900F900F900F900F900F90892B31F514
:1008500082ED92E09F938F93C0D300E511E01F9348
:100860000F93C3ECD1E0DF93CF93FFD31FDD26DDE1
:100870003DDD86EE92E09F938F93AFD31F930F934E
:10088000DF93CF93F2D339DD15DD8DB79EB70C968C
:100890000FB6F8949EBF0FBE8DBFBFCF68EC71E05E
:1008A00080E591E087D3892B31F582ED92E09F932B
:1008B0008F9393D300E511E01F930F93C3ECD1E026
:1008C000DF93CF93D2D3F2DCFDDC10DD86EE92E035
:1008D0009F938F9382D31F930F93DF93CF93C5D3AF
:1008E0000CDDE8DC8DB79EB70C960FB6F8949EBF72
:1008F0000FBE8DBF92CF6CEC71E080E591E05AD3D2
:10090000892B21F088EF92E080D387CF77DCCEDC93
:10091000DDDCDF91CF911F910F910895109231048A
:100920001092300410922F0410922E0408950F9309
:100930001F93CF93DF9300D000D0CDB7DEB7EEDFAB
:100940008EE690E05DD38BEC93E05FD38FE093E095
:100950005CD38FE293E09F938F933FD3CE010396B6
:100960009F938F9302979F938F9384E593E09F9338
:100970008F937BD30FB6F894DEBF0FBECDBF24C0DC
:1009800082E790E03DD38BEC93E03FD38AE593E0A0
:100990009F938F9322D38FE093E037D38FE293E03E
:1009A0009F938F931AD3CE0103969F938F930297B1
:1009B0009F938F9384E593E09F938F9356D30FB6C5
:1009C000F894DEBF0FBECDBF89819A810597C0F62E
:1009D0008B819C810997A0F600E010E01092290419
:1009E0001092280489819A818430910551F48FE610
:1009F00093E09F938F93F1D20F900F9001E010E05E
:100A000011C02C812F932B812F939F938F9380E87C
:100A100093E09F938F93E1D20F900F900F900F90E0
:100A20000F900F9084E993E09F938F93D6D280E547
:100A300091E09F938F9383EC91E09F938F9315D3D5
:100A40006CE672E080E591E0B5D20F900F900F90C8
:100A50000F900F900F90892B81F06EE672E080E589
:100A600091E0A8D2892B49F080E792E0CED281E0D4
:100A700090E0909329048093280480912804909119
:100A80002904892B09F0AACF8BEC93E0BED26CE647
:100A900072E080E591E08ED2892B09F051CF0130D0
:100AA000110509F45DC1AADB9FEF29E688E19150A9
:100AB00020408040E1F700C0000062ED70E08CE86B
:100AC00090E089DCEDDC9FEF29E688E19150204041
:100AD0008040E1F700C00000C6DB62ED70E080E01E
:100AE00090E079DCDDDC9FEF29E688E19150204041
:100AF0008040E1F700C00000A8DB9FEF29E688E115
:100B0000915020408040E1F700C0000068E270E0B2
:100B100080E090E007DCC4DC9FEF25EA8EE0915096
:100B200020408040E1F700C0000060E070E084E613
:100B300090E0F8DBB5DC9FEF25EA8EE09150204095
:100B40008040E1F700C0000029813A81F901EE0FF1
:100B5000FF1FEE0FFF1FEE0FFF1FE20FF31F8B8132
:100B60009C81E80FF91FEE0FFF1FE85FFE4F8081A9
:100B700091818B3F91050CF050C0220F331FF9017A
:100B8000E050FF4F608171818AEF90E024DC88DCC7
:100B90009FEF29E688E1915020408040E1F700C0B6
:100BA000000068DB9FEF29E688E1915020408040FB
:100BB000E1F700C000006CDB9FEF2FE087E291506F
:100BC00020408040E1F700C0000089819A81FC014B
:100BD000EE0FFF1FE050FF4F60817181FC01EE0FAF
:100BE000FF1FEE0FFF1FEE0FFF1FE80FF91F8B8196
:100BF0009C81E80FF91FEE0FFF1FE85FFE4F808119
:100C00009181E9DB4DDC9FEF29E688E1915020409E
:100C10008040E1F700C0000026C0220F331FF90119
:100C2000E050FF4F60817181D6DB3ADC9FEF29E60F
:100C300088E1915020408040E1F700C000001ADBBD
:100C40009FEF29E688E1915020408040E1F700C005
:100C500000001EDB9FEF2FE087E291502040804094
:100C6000E1F700C00000F8DA9FEF21EE84E0915038
:100C700020408040E1F700C000006EEC7FEF80E094
:100C800090E050DB0DDC9FEF25EA8EE09150204094
:100C90008040E1F700C00000E6DA9FEF27EA81E636
:100CA000915020408040E1F700C0000062E370E016
:100CB00080E090E037DBF4DB9FEF25EA8EE0915097
:100CC00020408040E1F700C0000029813A81F9010D
:100CD000EE0FFF1FEE0FFF1FEE0FFF1FE20FF31FC0
:100CE0008B819C81E80FF91FEE0FFF1FE85FFE4F1D
:100CF000808191818B3F9105A4F4220F331FF9016C
:100D0000E050FF4F608171818AEF90E064DBC8DBC7
:100D10009FEF25EA8EE0915020408040E1F700C02F
:100D200000008CDA9FEF23EC89E091502040804056
:100D3000E1F700C00000B3DA9FEF23EC89E09150A7
:100D400020408040E1F700C000009BDA9FEF29E6D9
:100D500088E1915020408040E1F700C00000F0CDD4
:100D60000F900F900F900F90DF91CF911F910F91E7
:100D700008951F920F920FB60F9211240BB60F9287
:100D80002F933F934F935F936F937F938F939F9393
:100D9000AF93BF93EF93FF9342DA84EB93E035D1A7
:100DA000FF91EF91BF91AF919F918F917F916F9143
:100DB0005F914F913F912F910F900BBE0F900FBEFF
:100DC0000F901F9018951F920F920FB60F9211243B
:100DD0000BB60F922F933F934F935F936F937F9335
:100DE0008F939F93AF93BF93EF93FF9380912C04C6
:100DF00090912D048F3F2FEF920729F00197909348
:100E00002D0480932C0480912A0490912B048F3F11
:100E10002FEF920729F0019790932B0480932A04D7
:100E200080912C0490912D04892B39F474DA81E09F
:100E300090E0909383018093820180912A049091A5
:100E40002B04892B39F459DA81E090E090938101E9
:100E500080938001FF91EF91BF91AF919F918F910E
:100E60007F916F915F914F913F912F910F900BBEAA
:100E70000F900FBE0F901F90189587B38C6087BBA3
:100E800087B3806687BB88B38B7F88BB88B38F7D31
:100E900088BB21D935D95AD948D987B7846087BF4B
:100EA00081B38E7F81BB82B3816082BB89B7816051
:100EB00089BFEAE6F0E0808182608083789454D034
:100EC000E0E4F4E082E791E09383828384E691E0BA
:100ED0009183808393D92FEF83E294EF2150804058
:100EE0009040E1F700C000001092290410922804FD
:100EF0008DEC93E09F938F9370D080E591E09F936A
:100F00008F9383EC91E09F938F93AFD066EC71E069
:100F100080E591E04FD00F900F900F900F900F90C1
:100F20000F90892B11F4C9DADFCF68EC71E080E50E
:100F300091E040D0892B11F4FADCD6CF6AEC71E055
:100F400080E591E037D0892B11F460DCCDCF69E0EA
:100F500074E080E591E02ED0892B11F4DFDCC4CF62
:100F60008BE094E052D0C0CF109298008FEC809329
:100F70009900EBE9F0E0808182608083EDE9F0E0A8
:100F8000808186608083EAE9F0E0808180618083EF
:100F9000808188608083089590919B0095FFFCCFAD
:100FA00080939C00089580919B008823E4F78091B2
:100FB0009C000895FB01DC018D9181341CF08B3580
:100FC0000CF4805E619161341CF06B350CF4605E52
:100FD000861B611189F3990B0895CF93DF93CDB7E9
:100FE000DEB7AE014B5F5F4FFA0161917191AF01C6
:100FF00080914204909143044BD0DF91CF910895AA
:10100000609142047091430470C50F931F93CF9376
:10101000DF93E0914204F0914304238121FF1BC040
:101020008C01D0E0C0E0F80181918F016091420411
:1010300070914304DB011896ED91FC911997882378
:1010400031F00995892B79F3DFEFCFEFECCF8AE010
:101050000995892B19F08FEF9FEF02C08D2F9C2FE0
:10106000DF91CF911F910F910895CF93DF93CDB76B
:10107000DEB7AE014B5F5F4FFA0161917191AF0135
:101080008091400490914104B2D3DF91CF910895B3
:101090002F923F924F925F926F927F928F929F9288
:1010A000AF92BF92CF92DF92EF92FF920F931F9376
:1010B000CF93DF93CDB7DEB72B970FB6F894DEBF93
:1010C0000FBECDBF6C017B018A01FC011782168225
:1010D000838181FFBFC1CE0101963C01F60193815E
:1010E000F70193FD859193FF81917F01882309F496
:1010F000ADC1853239F493FD859193FF81917F01D4
:10110000853221F4B60190E0F0D4E8CF912C212C67
:10111000312CFFE1F315D8F08B3279F038F48032BE
:1011200079F08332A1F4232D20611DC08D3261F04E
:10113000803369F4232D216016C0832D8260382E00
:10114000E32DE4603E2E2AC0F32DF8601DC037FC6D
:101150002DC020ED280F2A3040F08E32B9F436FC35
:1011600075C1232D2064322E19C036FE06C08AE0D8
:10117000989E200D1124922E11C0EAE02E9E200D83
:101180001124222EF32DF0623F2E08C08C3621F45C
:10119000832D8068382E02C0883641F4F70193FD14
:1011A000859193FF81917F018111B3CF982F9F7D0E
:1011B0009554933028F40C5F1F4F9FE399830DC023
:1011C000833631F0833771F0833509F055C020C084
:1011D000F801808189830E5F1F4F88248394912CAE
:1011E000530112C02801F2E04F0E511CF801A080FB
:1011F000B18036FE03C0692D70E002C06FEF7FEF53
:10120000C5012AD44C018201F32DFF773F2E15C072
:10121000280122E0420E511CF801A080B18036FE68
:1012200003C0692D70E002C06FEF7FEFC50109D4E4
:101230004C01F32DF0683F2E820133FC19C0822D42
:1012400090E088169906A0F4B60180E290E04DD4B3
:101250002A94F5CFF50137FC859137FE81915F0126
:10126000B60190E042D421102A9421E0821A91081C
:101270008114910479F7E1C0843611F0893639F58B
:10128000F80137FE07C060817181828193810C5F14
:101290001F4F08C060817181072E000C880B990BCD
:1012A0000E5F1F4FF32DFF763F2E97FF09C09095DD
:1012B0008095709561957F4F8F4F9F4FF0683F2EBF
:1012C0002AE030E0A30166D4882E861844C0853712
:1012D00031F4232D2F7EB22E2AE030E025C0932D4D
:1012E000997FB92E8F36C1F018F4883579F0AEC0E9
:1012F000803719F0883721F0A9C0E92FE061BE2EB0
:10130000B4FE0DC0FB2DF460BF2E09C034FE0AC030
:10131000292F2660B22E06C028E030E005C020E16B
:1013200030E002C020E132E0F801B7FE07C0608182
:101330007181828193810C5F1F4F06C06081718132
:1013400080E090E00E5F1F4FA30124D4882E861802
:10135000FB2DFF773F2E36FE0DC0232D2E7FA22EB4
:10136000891458F434FE0BC032FC09C0832D8E7EE4
:10137000A82E05C0B82CA32C03C0B82C01C0B92CD2
:10138000A4FE0FC0FE01E80DF11D8081803321F421
:101390009A2D997EA92E09C0A2FE06C0B394B394DB
:1013A00004C08A2D867809F0B394A3FC10C0A0FE77
:1013B00006C0B21480F4280C922C9B180DC0B214F5
:1013C00058F4B60180E290E090D3B394F8CFB21411
:1013D00018F42B1802C0982C212CA4FE0FC0B601C3
:1013E00080E390E082D3A2FE16C0A1FC03C088E790
:1013F00090E002C088E590E0B6010CC08A2D8678A6
:1014000051F0A1FE02C08BE201C080E2A7FC8DE298
:10141000B60190E06AD3891430F4B60180E390E01D
:1014200064D39A94F8CF8A94F301E80DF11D80817A
:10143000B60190E05AD38110F6CF222009F44ECEA7
:10144000B60180E290E051D32A94F7CFF60186816D
:10145000978102C08FEF9FEF2B960FB6F894DEBFF7
:101460000FBECDBFDF91CF911F910F91FF90EF90F5
:10147000DF90CF90BF90AF909F908F907F906F90B4
:101480005F904F903F902F90089520FD09C0FC0180
:1014900023FD05C022FF02C0738362835183408312
:1014A000089544FD17C046FD17C0AB01BC01DA0129
:1014B000FB01AA0FBB1FEE1FFF1F1094D1F74A0FAD
:1014C0005B1F6E1F7F1FCB01BA01660F771F881F3E
:1014D000991F09C033E001C034E0660F771F881FF1
:1014E000991F3150D1F7620F711D811D911D089513
:1014F0000F931F93CF93DF938C01C801B8D2EC01F7
:1015000097FD06C08BD2892BC1F7B801CE0129D334
:10151000CE01DF91CF911F910F9108958F929F92ED
:10152000AF92BF92EF92FF920F931F93CF93DF93EF
:101530008C01D62F7A01B22E9AD29C0133272B32FE
:10154000310531F02D32310559F48B2D8068B82EDC
:10155000D15011F480E061C0C80189D297FDFACF63
:10156000CB2DCD7F2B2D2073F9F48033E9F4AA2401
:10157000AA94AD0E09F43EC0C80179D297FD3AC0D5
:101580009C012F7D33272835310541F4C264D250A8
:1015900089F1C8016CD297FF07C02CC0B6FE02C00B
:1015A000C26001C0C261DA2D812C912C540120ED62
:1015B000280F283078F0C4FF03C0B801D2D217C07A
:1015C0002A3040F0C6FFF9CF2F7D3FEE320F363084
:1015D000A0F727504C2FC501B40163DF4B015C011C
:1015E000C260D15051F0C80142D297FFE0CFC1FD97
:1015F00004C0B0CF812C912C5401C7FF08C0B09417
:10160000A09490948094811C911CA11CB11C2C2F3F
:10161000B501A401C70139DF81E0DF91CF911F91AE
:101620000F91FF90EF90BF90AF909F908F90089593
:101630005F926F927F928F929F92AF92BF92CF9262
:10164000DF92EF92FF920F931F93CF93DF93CDB76B
:10165000DEB7A0970FB6F894DEBF0FBECDBF5C011A
:10166000962E7A01F9018E010F5F1F4F680180E20B
:10167000D8011D928A95E9F7D50113968C9080E0E8
:1016800090E0612C712C30E061E070E083FC2591EA
:1016900083FE21918F01522E211103C080E090E042
:1016A00090C02E3511F4009751F1432F50E04817A8
:1016B00059073CF42D3559F12D3219F4772009F1F1
:1016C00003C0772009F468C0452D46954695469598
:1016D000D601A40FB11D452D47708B0102C0000F2C
:1016E000111F4A95E2F7A8015C91452B4C936514B4
:1016F00059F0561410F45394E7CF5A94E5CF31E0E3
:1017000004C07724739401C0712C0196BFCF772059
:1017100019F08E8180628E83311103C088248394F6
:1017200017C0F6019E012F5D3F4F80818095819308
:101730002E173F07D1F7F2CFE114F10429F0D701BA
:101740008C93F70131967F019A94812C9920E9F0CE
:10175000C5018DD197FD17C0FC01FF2723E0F5954A
:10176000E7952A95E1F7EC0DFD1D208130E0AC01F5
:101770004770552702C0359527954A95E2F720FD19
:10178000DBCFB501EED1811089CFE114F10411F066
:10179000D7011C92C80115C0422F46954695469523
:1017A000D601A40FB11D422F47708B0102C0000F5C
:1017B000111F4A95E2F7A8015C91452B4C93622ECC
:1017C000A4CFA0960FB6F894DEBF0FBECDBFDF91B9
:1017D000CF911F910F91FF90EF90DF90CF90BF902E
:1017E000AF909F908F907F906F905F9008955F92E1
:1017F0006F927F928F929F92AF92BF92CF92DF9221
:10180000EF92FF920F931F93CF93DF936C01EB0145
:101810005A01FC0117821682512CF601E380FE0169
:10182000E3FC8591E3FE8191182FEF01882309F4F1
:10183000E0C090E0F3D0892B19F0C60159DEEDCF5E
:10184000153241F4FE01E3FC1591E3FE1191EF0125
:10185000153271F4C6010BD197FDC9C0412F50E07C
:101860009C01332724173507C1F2B6017AD1C1C0D4
:101870001A3239F4E3FC1591E3FE1191EF0101E016
:1018800001C000E0F12C20ED210F2A3078F4026035
:101890006F2D70E080E090E040E203DEF62EFE0166
:1018A000E3FC1591E3FE1191EF01EDCF01FF03C0C1
:1018B000F11003C09EC0FF24FA94183619F01C36AC
:1018C00051F010C0FE01E3FC1591E3FE1191EF0110
:1018D000183641F408600460FE01E3FC1591E3FE54
:1018E0001191EF01112309F484C0612F70E08CE89D
:1018F00090E09CD0892B09F47CC000FD07C0F50165
:1019000080809180C50102965C0102C0812C912CDF
:101910001E3649F4F6014681578160E070E0202FC1
:10192000C401B3DD7ACF1336A1F401FD02C0FF2458
:10193000F394C6019CD097FD5AC08114910429F0FC
:10194000F4018083C40101964C01FA94F110F1CFA7
:101950004AC01B3551F49E01A4016F2DC60168DEFB
:10196000EC01892B09F03FC039C0C601C1DD97FDEC
:101970003EC01F3649F128F4143621F1193639F1E9
:1019800025C0133771F01537E9F020C08114910498
:1019900029F0F4016082C40101964C01FA94FF2001
:1019A00059F0C60164D03C0197FD06C037D0892BA1
:1019B00069F3B601C301D5D081149104A1F0F401FB
:1019C000108211C0006203C0006101C00064202FBA
:1019D000A4016F2DC601A2DD811105C0F60183812E
:1019E000807329F406C000FD18CF539416CF5520FC
:1019F00019F0852D90E002C08FEF9FEFDF91CF911E
:101A00001F910F91FF90EF90DF90CF90BF90AF901C
:101A10009F908F907F906F905F900895911118C163
:101A2000803219F089508550D0F70895FC01059057
:101A3000061621F00020D9F7C00108953197CF0193
:101A40000895FC010590615070400110D8F7809511
:101A500090958E0F9F1F0895FC016150704001907A
:101A60000110D8F7809590958E0F9F1F0895CF9302
:101A7000DF93EC012B8120FF33C026FF0AC02F7BB0
:101A80002B838E819F8101969F838E838A8190E034
:101A900029C022FF0FC0E881F9818081082E000C47
:101AA000990B009719F420622B831AC03196F983A1
:101AB000E8830EC0EA85FB85099597FF09C02B8155
:101AC000019611F080E201C080E1822B8B8308C077
:101AD0002E813F812F5F3F4F3F832E83992702C086
:101AE0008FEF9FEFDF91CF9108950F931F93CF93C7
:101AF000DF93FB01238121FD03C08FEF9FEF2CC0FB
:101B000022FF16C046815781248135814217530731
:101B100044F4A081B1819D012F5F3F4F3183208329
:101B20008C93268137812F5F3F4F3783268314C0E4
:101B30008B01EC01FB010084F185E02D0995892BD7
:101B4000E1F6D80116968D919C91179701961796FC
:101B50009C938E931697CE01DF91CF911F910F9199
:101B60000895FB01238120FF12C026FD10C08F3F86
:101B70003FEF930761F082832F7D206423832681CA
:101B800037812150310937832683992708958FEFB4
:101B90009FEF0895FA01AA27283051F1203181F1F1
:101BA000E8946F936E7F6E5F7F4F8F4F9F4FAF4F65
:101BB000B1E03ED0B4E03CD0670F781F891F9A1F78
:101BC000A11D680F791F8A1F911DA11D6A0F711D2C
:101BD000811D911DA11D20D009F468943F912AE038
:101BE000269F11243019305D3193DEF6CF01089520
:101BF000462F4770405D4193B3E00FD0C9F7F6CF51
:101C0000462F4F70405D4A3318F0495D31FD405218
:101C1000419302D0A9F7EACFB4E0A69597958795AE
:101C200077956795BA95C9F700976105710508958D
:101C30009B01AC010A2E0694579547953795279539
:101C4000BA95C9F7620F731F841F951FA01D0895D1
:0A1C5000992788270895F894FFCF24
:101C5A0032001801FE01C6021E006E00B90004011E
:101C6A004F01A401E0012602260219005F00A0002C
:101C7A00E60027016D01AE01EF01260219005F009F
:101C8A00A000E60027016D01AE01EF01260219004E
:101C9A005F00A000E60027016D01AE01EF012602F8
:101CAA0030000000000000000000000000000000FA
:101CBA000000000000000001000000000000D3073F
:101CCA0000000000000200000000CC070000000035
:101CDA000100010053656C656374206D6F646520B3
:101CEA003A20737465705F72656C2831292C2073F1
:101CFA007465705F6162732832292C20736572766D
:101D0A006F5F636F6E2833292C207175697428718F
:101D1A00293F002573003100320033007100696EDB
:101D2A00707574202731272C202732272C2027333F
:101D3A0027206F72202771270D005820636F6F725A
:101D4A0064696E617465203A2000796F7572206942
:101D5A006E707574203A202535640D0A0D0A0059F3
:101D6A0020636F6F7264696E617465203A20005B4C
:101D7A00782C795D203D205B2535642C202535643F
:101D8A005D0D0A0068616E6420203A20007772694E
:101D9A007374203A2000656C626F77203A20004401
:101DAA006F20796F752077616E7420746F2070725E
:101DBA006F636565643F5B792F6E5D0079006E0025
:101DCA00696E70757420277927206F7220276E2715
:101DDA00206F6E6C790D0063757272656E74205097
:101DEA006F736974696F6E203A205B2534642C2006
:101DFA002534645D0D0A0D0A004D6F7665757028ED
:101E0A0031292C204D6F7665646F776E2832292C24
:101E1A0020676F746F4D61696E4D656E7528712903
:101E2A003F0072656164793F28616E7920776F722D
:101E3A006429203A200073746F7028616E792077C4
:101E4A006F726429203A2000696E707574202731F8
:101E5A00272C20273227206F72202771270D002870
:101E6A00666F725573657229404071756974206690
:101E7A006F7220726F77203D3D203440400D00285C
:101E8A00666F72557365722977616974696E672026
:101E9A00666F72205B726F772C636F6C756D6E5D07
:101EAA00203A200025752C25750028666F72557317
:101EBA00657229776F726E6720696E707574002873
:101ECA00666F72557365722971756974202D2000C9
:101EDA0028666F7255736572295B25752C25755DA9
:101EEA00202D2000446F20796F752077616E742051
:101EFA00746F2070726F636565643F5B792F6E5DE6
:101F0A00203A20000D0A0D0A21212121494E543080
:101F1A002073657421212121210D0A0D0054657356
:101F2A00746D6F64652831292C206175746F6D6F2B
:101F3A0064652832292C206D616E75616C6D6F6441
:101F4A00652833292C207365744865726541735B73
:101F5A00302C305D2834293F003400696E70757466
:101F6A00202731272C202732272C20273327206FA0
:081F7A0072202734270D00003E
:00000001FF
