S01300006175746F446973706C61792E7372656382
S113000045C0000053C0000051C000004FC00000B4
S11300104DC000004BC0000049C0000047C00000B4
S113002045C0000043C0000041C000003FC00000C4
S11300303DC000003BC0000039C0000037C00000D4
S113004035C0000033C0000031C000002FC00000E4
S11300502DC000002BC0000029C0000027C00000F4
S113006025C0000023C0000021C000001FC0000004
S11300701DC000001BC0000019C0000017C0000014
S113008015C0000013C0000011C0000011241FBEE1
S1130090CFEFD0E1DEBFCDBF21E0A0E0B1E001C0F1
S11300A01D92A430B207E1F71ED174C2A9CF87B361
S11300B0806187BB83B7886083BF83B78F7E83BF2C
S11300C083B7806283BF83B7816083BF83B7826055
S11300D083BF8CE781BF089587B3806887BB85B5EC
S11300E0886085BD85B58F7E85BD85B5806285BDFB
S11300F085B5816085BD85B5826085BD8CE783BD8E
S1130100089582B1886382B9EBE8F0E0808182606F
S11301108083AAE8B0E08C9188618C9380818F7B86
S1130120808380818068808380818F7E80838081CA
S11301308062808380818B7F8083808188608083DC
S11301408C9182608C9380E49CE9909387008093E7
S1130150860090938500809384009093830080931D
S113016082008FE39CE9909381008093800008953E
S11301709C01CB01BA012230310589F023303105CD
S1130180C9F02130310501F520E030E048EC53E4BA
S11301909ED120D17093870060938600089520E05B
S11301A030E048EC53E493D115D17093850060930B
S11301B08400089520E030E048EC53E488D10AD16B
S11301C0709383006093820008950AC02FE738E398
S11301D041E0215030404040E1F700C00000019769
S11301E00097A1F7089583B7806183BF83B78F7D9C
S11301F083BF089583B78F7E83BF83B7806283BF35
S1130200089585B5806185BD85B58F7D85BD0895CB
S113021085B58F7E85BD85B5806285BD0895CF93F4
S1130220DF93EC0185B38F7D85BBEBDFCE01880FB7
S1130230991FCBDFEDDF2FEF83EC99E02150804055
S11302409040E1F700C00000809102019091030109
S1130250C80FD91FD0930301C0930201DF91CF913E
S11302600895CF93DF93EC0185B3806285BBC9DF2A
S1130270CE01880F991FA9DFCBDF2FEF83EC99E024
S1130280215080409040E1F700C0000080910201BD
S1130290909103018C1B9D0B9093030180930201A9
S11302A0DF91CF910895CF93DF93EC0185B38D7FD8
S11302B085BB99DFCE0189DF9DDF2FEF83EC99E0C9
S11302C0215080409040E1F700C00000809100017F
S11302D090910101C80FD91FD0930101C09300016F
S11302E0DF91CF9108958AB381608ABB84B3836020
S11302F084BB84B3806384BB85B38E7F85BB85B3A5
S11303008F7E85BBD4DEE8DEFCDE2FEF83E294EF44
S1130310215080409040E1F700C000004AE959E9CB
S113032061E071E483E090E023DF40E050E060E0CE
S113033071E482E090E01CDF40E050E060EE70E4A5
S113034081E090E015DF84E190E069DF40E050E077
S113035060E071E481E090E00BDF8CE390E0A3DFE8
S113036084E190E07EDF2FEF87EA91E62150804020
S11303709040E1F700C0000046E656E666EC70E403
S113038081E090E0F5DE2FEF87EA91E6215080408E
S11303909040E1F700C000008EE190E084DF2FEF91
S11303A087EA91E6215080409040E1F700C00000C8
S11303B084E190E034DF2FEF87EA91E6215080401A
S11303C09040E1F700C0000084E190E06CDF80E041
S11303D090E008955BD088F09F5790F0B92F99274B
S11303E0B751A0F0D1F0660F771F881F991F1AF03C
S11303F0BA95C9F712C0B13081F062D0B1E0089566
S11304005FC0672F782F8827B85F39F0B93FCCF3E6
S1130410869577956795B395D9F73EF49095809531
S1130420709561957F4F8F4F9F4F089597F99F6700
S113043080E870E060E008959FEF80EC0895002468
S11304400A941616170618060906089500240A9435
S113045012161306140605060895092E0394000CBB
S113046011F4882352F0BB0F40F4BF2B11F460FF4A
S113047004C06F5F7F4F8F4F9F4F089557FD905873
S1130480440F551F59F05F3F71F04795880F97FB54
S1130490991F61F09F3F79F087950895121613060E
S11304A01406551FF2CF4695F1DF08C0161617063D
S11304B01806991FF1CF8695710561050894089572
S11304C0E894BB2766277727CB0197F908950BD0CB
S11304D0C4CFB5DF28F0BADF18F0952309F0A6CF12
S11304E0ABCF1124EECFCADFA0F3959FD1F3950FC4
S11304F050E0551F629FF001729FBB27F00DB11DA4
S1130500639FAA27F00DB11DAA1F649F6627B00D33
S1130510A11D661F829F2227B00DA11D621F739F1C
S1130520B00DA11D621F839FA00D611D221F749F2A
S11305303327A00D611D231F849F600D211D822F71
S1130540762F6A2F11249F5750408AF0E1F08823B8
S11305504AF0EE0FFF1FBB1F661F771F881F9150C5
S11305605040A9F79E3F510570F060CFAACF5F3F7E
S1130570ECF3983EDCF3869577956795B795F795F8
S1130580E7959F5FC1F7FE2B880F911D9695879580
S10B059097F90895F894FFCFD8
S9030000FC
