S01300006175746F446973706C61792E7372656382
S113000045C000004BC0000049C0000047C00000CC
S113001045C0000043C0000041C000003FC00000D4
S11300203DC000003BC0000039C0000037C00000E4
S113003035C0000033C0000031C000002FC00000F4
S11300402DC000002BC0000029C0000027C0000004
S113005025C0000023C0000021C000001FC0000014
S11300601DC000001BC0000019C0000017C0000024
S113007015C0000013C0000011C000000FC0000034
S11300800DC000000BC0000009C0000011241FBEF9
S1130090CFEFD0E1DEBFCDBFA2D0E4C1B1CF83B7F3
S11300A0806183BF83B78F7D83BF089583B78F7EBD
S11300B083BF83B7806283BF089587B3806187BBA2
S11300C083B7886083BFF2DF83B7816083BF83B760
S11300D0826083BF8DE781BF089585B5806185BD4A
S11300E085B58F7D85BD089585B58F7E85BD85B524
S11300F0806285BD089587B3806887BB85B58860B5
S113010085BDF2DF85B5816085BD85B5826085BD1D
S11301108DE783BD089582B1886382B9EBE8F0E08E
S1130120808182608083AAE8B0E08C9188618C939E
S113013080818F7B808380818068808380818F7EB3
S1130140808380818062808380818F7E80838081B0
S1130150806280838C9182608C9380E49CE990938C
S11301608700809386009093850080938400909309
S11301708300809382008FE39CE9909381008093B5
S1130180800008959C01CB01BA012230310589F029
S113019023303105C9F02130310501F520E030E08C
S11301A048EC53E4D4D07ED07093870060938600EB
S11301B0089520E030E048EC53E4C9D073D0709344
S11301C0850060938400089520E030E048EC53E417
S11301D0BED068D0709383006093820008958AB380
S11301E081608ABB84B3836084BB84B3806384BB33
S11301F085B38E7F85BB85B38F7E85BB5EDF7BDF5A
S11302008ADF2FEF87EA91E6215080409040E1F7A2
S113021000C0000044DF61DF46E656E666EB70E4AA
S113022081E090E0AFDF4DEC5CEC6CE570E482E0E3
S113023090E0A8DF2FEF8BE792E9215080409040B7
S1130240E1F700C0000040E050E060EE70E481E0BF
S113025090E098DF4AE959E961E071E482E090E0D6
S113026091DF2FEF8BE792E9215080409040E1F736
S113027000C0000040E050E060E071E481E090E004
S113028081DF46E656E66EE471E482E090E07ADFD0
S11302902FEF8BE792E9215080409040E1F700C0B6
S11302A00000BACF33D088F09F5790F0B92F992728
S11302B0B751A0F0D1F0660F771F881F991F1AF06D
S11302C0BA95C9F712C0B13081F03AD0B1E00895BF
S11302D037C0672F782F8827B85F39F0B93FCCF340
S11302E0869577956795B395D9F73EF49095809563
S11302F0709561957F4F8F4F9F4F089557FD90588C
S1130300440F551F59F05F3F71F04795880F97FBD5
S1130310991F61F09F3F79F087950895121613068F
S11303201406551FF2CF4695F1DF08C016161706BE
S11303301806991FF1CF86957105610508940895F3
S1130340E894BB2766277727CB0197F908950BD04C
S113035078C069D028F06ED018F0952309F05AC0FF
S11303605FC01124EECFCADFA0F3959FD1F3950FA0
S113037050E0551F629FF001729FBB27F00DB11D25
S1130380639FAA27F00DB11DAA1F649F6627B00DB5
S1130390A11D661F829F2227B00DA11D621F739F9E
S11303A0B00DA11D621F839FA00D611D221F749FAC
S11303B03327A00D611D231F849F600D211D822FF3
S11303C0762F6A2F11249F5750408AF0E1F088233A
S11303D04AF0EE0FFF1FBB1F661F771F881F915047
S11303E05040A9F79E3F510570F014C0AACF5F3F5B
S11303F0ECF3983EDCF3869577956795B795F7957A
S1130400E7959F5FC1F7FE2B880F911D9695879501
S113041097F9089597F99F6780E870E060E0089580
S11304209FEF80EC089500240A9416161706180608
S11304300906089500240A941216130614060506E4
S11304400895092E0394000C11F4882352F0BB0F75
S113045040F4BF2B11F460FF04C06F5F7F4F8F4FD8
S10B04609F4F0895F894FFCFAB
S9030000FC
