S01300006175746F446973706C61792E7372656382
S11300004BC00000C6C6000065C0000063C000000D
S113001061C000005FC000005DC000005BC0000064
S113002059C0000057C0000055C0000053C0000074
S113003051C000004FC00000D9C600004BC00000F2
S113004049C0000047C0000045C0000043C0000094
S113005041C000003FC000003DC000003BC00000A4
S113006039C0000037C0000035C0000033C00000B4
S113007031C000002FC000002DC000002BC00000C4
S113008029C0000027C0000025C000006364696E19
S11300906F70737578585B0011241FBECFEFD0E1E9
S11300A0DEBFCDBF14E0A0E0B1E0E0E8FCE100E099
S11300B00BBF02C007900D92AE30B107D9F724E010
S11300C0AEE0B4E001C01D92AC32B207E1F7E8D66D
S11300D00C943E0E95CF87B3806187BB83B788604D
S11300E083BF83B78F7E83BF83B7806283BF83B7A9
S11300F0816083BF83B7826083BF8CE781BF08952B
S113010087B3806887BB85B5886085BD85B58F7EDC
S113011085BD85B5806285BD85B5816085BD85B5A4
S1130120826085BD8CE783BD08958FB582608FBDE5
S11301308EB588618EBD8EB581608EBD8FE79EE3DE
S113014097BD86BD87B7846087BF089582B18863F1
S113015082B9EBE8F0E0808182608083AAE8B0E0B5
S11301608C9188618C9380818F7B8083808180686F
S1130170808380818F7E8083808180628083808180
S11301808B7F80838081886080838C9182608C9354
S113019080E49CE990938700809386009093850087
S11301A08093840090938300809382008FE39CE982
S11301B090938100809380000895009741F0880F08
S11301C0991F880F991F909387008093860061156B
S11301D0710541F0660F771F660F771F70938500D6
S11301E0609384004115510541F0440F551F440F9D
S11301F0551F5093830040938200089580E89CE04B
S11302009093870080938600909385008093840068
S113021080E19EE09093830080938200089580E4BF
S11302209FE190938700809386009093850080934C
S113023084009093830080938200089580E89CE07A
S11302409093870080938600089588EF9CE09093B4
S1130250870080938600089588E49DE0909387004A
S113026080938600089580EA9FE0909387008093AE
S11302708600089580EC92E1909387008093860035
S1130280089580EB94E09093850080938400089512
S113029080EB94E09093850080938400089588ED2A
S11302A094E09093830080938200089580E19EE01F
S11302B09093830080938200089583B7806183BF05
S11302C083B78F7D83BF089583B78F7E83BF83B742
S11302D0806283BF089585B5806185BD85B58F7DB6
S11302E085BD089585B58F7E85BD85B5806285BD44
S11302F008950F931F93CF93DF93EC018B018091AB
S11303001604909117048C0F9D1F909317048093EB
S113031016048091140490911504860F971F9093EE
S1130320150480931404DD2324F085B38F7D85BBED
S113033006C085B3806285BBD195C195D1091123CF
S113034024F085B38D7F85BB06C085B3826085BBF1
S11303501195019511091DBC1CBC209729F0BBDF28
S113036010928301109282010115110529F0A5DF75
S11303701092810110928001CE01880F991FCC0F39
S1130380DD1FCC0FDD1FCC0FDD1FC80FD91FD0938D
S11303901304C093120429E1209FC001219F900DF2
S11303A011249093110480931004DF91CF911F9135
S11303B00F9108950F931F93CF93DF932091160409
S11303C030911704AC01421B530BEA012091140431
S11303D030911504FB01E21BF30B9F018F019093F5
S11303E01704809316047093150460931404DD239A
S11303F024F085B38F7D85BB07C085B3806285BB40
S1130400CC27DD27C41BD50B112324F085B38D7FA6
S113041085BB07C085B3826085BB00271127021BFB
S1130420130B1DBC1CBC209729F055DF10928301CF
S1130430109282010115110529F03FDF109281010C
S113044010928001CE01880F991FCC0FDD1FCC0FB5
S1130450DD1FCC0FDD1FC80FD91FD0931304C09329
S1130460120429E1209FC001219F900D1124909333
S1130470110480931004DF91CF911F910F9108957F
S11304808091820190918301892BD1F38091800125
S113049090918101892BA1F30895EF92FF920F931C
S11304A01F93CF93DF93C0E0D0E010920F0410921B
S11304B00E0484E891E09F938F93A2D580E591E0A8
S11304C09F938F9383EC91E09F938F93E1D566EC98
S11304D071E080E591E081D50F900F900F900F901F
S11304E00F900F90892B39F481E090E090931B04D6
S11304F080931A042FC068EC71E080E591E06DD51B
S1130500892B39F482E090E090931B0480931A04C1
S113051021C06AEC71E080E591E05FD5892B39F464
S113052083E090E090931B0480931A0413C06CEC56
S113053071E080E591E051D5892B51F08EEC91E08A
S113054077D581E090E090930F0480930E0402C06D
S1130550C1E0D0E080910E0490910F04892B09F042
S1130560A4CF209709F0C7C080911A0490911B046E
S11305709C01215031092230310508F04CC08AEE2B
S113058091E09F938F933CD58CE194E09F938F935C
S11305900F2EF1EFEF2EF2E0FF2EF02DFF92EF92EF
S11305A077D580911D048F9380911C048F930AEF5B
S11305B011E01F930F9324D58FE092E09F938F93C4
S11305C01FD580E294E09F938F93FF92EF9260D5C2
S11305D0809121048F93809120048F931F930F9314
S11305E00FD5809121048F93809120048F93809163
S11305F01D048F9380911C048F938FE192E09F934D
S11306008F93FED48DB79EB74A960FB6F8949EBFCB
S11306100FBE8DBF30C0039771F584E392E09F93C2
S11306208F93EED482E294E09F938F9301EF12E0D4
S11306301F930F932DD58DE392E09F938F93E0D476
S11306408EE194E09F938F931F930F9321D586E4BB
S113065092E09F938F93D4D484E294E09F938F93FA
S11306601F930F9315D58DB79EB742960FB6F89486
S11306709EBF0FBE8DBF10920F0410920E048FE424
S113068092E09F938F93BCD480E591E09F938F93E6
S113069083EC91E09F938F93FBD46CE672E080E54A
S11306A091E09BD40F900F900F900F900F900F90AC
S11306B0892B81F06EE672E080E591E08ED4892B7F
S11306C049F080E792E0B4D481E090E090930F0485
S11306D080930E0480910E0490910F04892B59F697
S11306E08CE094E0A5D46CE672E080E591E075D4EA
S11306F0892B09F0DACE209709F071C080911A0491
S113070090911B048130910559F5609120047091FA
S1130710210480911C0490911D04EBDDB1DE8091D5
S113072015048F93809114048F93809117048F93F1
S1130730809116048F9387E892E09F938F9360D4FF
S11307409FEF23ED80E3915020408040E1F700C00B
S113075000000F900F900F900F900F900F90A5CE68
S11307608230910559F560912004709121048091A3
S11307701C0490911D041EDE83DE809115048F936A
S1130780809114048F93809117048F9380911604A1
S11307908F9387E892E09F938F9332D49FEF23ED5A
S11307A080E3915020408040E1F700C000000F90AA
S11307B00F900F900F900F900F9077CE039709F042
S11307C074CE409124045091250460911E047091CC
S11307D01F048091220490912304EFDC66CEDF9104
S11307E0CF911F910F91FF90EF9008950F931F9356
S11307F0CF93DF9300D000D0CDB7DEB78EE690E084
S113080012D48CE094E014D489EA92E011D489ECF7
S113081092E09F938F93F4D3CE0103969F938F938B
S113082002979F938F938EEE92E09F938F9330D491
S11308300FB6F894DEBF0FBECDBF24C082E790E0B0
S1130840F2D38CE094E0F4D384EF92E09F938F93FF
S1130850D7D389EA92E0ECD389EC92E09F938F930B
S1130860CFD3CE0103969F938F9302979F938F9339
S11308708EEE92E09F938F930BD40FB6F894DEBF65
S11308800FBECDBF89819A810597C0F68B819C816B
S11308900997A0F600E010E010920F0410920E04E5
S11308A089819A818430910551F489E093E09F9382
S11308B08F93A6D30F900F9001E010E011C02C810C
S11308C02F932B812F939F938F938AE193E09F9390
S11308D08F9396D30F900F900F900F900F900F90CF
S11308E08EE293E09F938F938BD380E591E09F9367
S11308F08F9383EC91E09F938F93CAD36CE672E05D
S113090080E591E06AD30F900F900F900F900F90B5
S11309100F90892B81F06EE672E080E591E05DD363
S1130920892B49F080E792E083D381E090E09093B3
S11309300F0480930E0480910E0490910F04892B70
S113094009F0AACF8CE094E073D36CE672E080E502
S113095091E043D3892B09F051CF0130110509F4FB
S11309606AC14CDC9FEF23ED80E39150204080402E
S1130970E1F700C0000062ED70E08CE890E01ADD61
S11309807FDD9FEF29E688E1915020408040E1F728
S113099000C0000068DC62ED70E080E090E00ADDF9
S11309A06FDD9FEF29E688E1915020408040E1F718
S11309B000C000004ADC9FEF29E688E19150204006
S11309C08040E1F700C0000068E270E080E090E061
S11309D090DC56DD9FEF25EA8EE091502040804068
S11309E0E1F700C0000060E070E084E690E081DCA4
S11309F047DD9FEF25EA8EE0915020408040E1F7EB
S1130A0000C0000029813A81F901EE0FFF1FEE0FAB
S1130A10FF1FEE0FFF1FE20FF31F8B819C81E80F76
S1130A20F91FEE0FFF1FE85FFE4F808191818B3F1E
S1130A3091050CF05AC0220F331FF901E050FF4F0B
S1130A40608171818AEF90E0B5DC1ADD9FEF29E6C1
S1130A5088E1915020408040E1F700C0000011DCA3
S1130A609FEF23ED80E3915020408040E1F700C0E8
S1130A70000015DC9FEF23ED80E39150204080407F
S1130A80E1F700C00000E8DB9FEF23ED80E3915025
S1130A9020408040E1F700C0000089819A81FC0178
S1130AA0EE0FFF1FE050FF4F60817181FC01EE0FDC
S1130AB0FF1FEE0FFF1FEE0FFF1FE80FF91F8B81C3
S1130AC09C81E80FF91FEE0FFF1FE85FFE4F808146
S1130AD0918170DCD5DC9FEF29E688E191502040BC
S1130AE08040E1F700C0000030C0220F331FF9013D
S1130AF0E050FF4F608171815DDCC2DC9FEF29E62D
S1130B0088E1915020408040E1F700C00000B9DB4B
S1130B109FEF23ED80E3915020408040E1F700C037
S1130B200000BDDB9FEF23ED80E391502040804027
S1130B30E1F700C0000090DB9FEF23ED80E39150CC
S1130B4020408040E1F700C000006EEC7FEF80E0C1
S1130B5090E0CFDB95DC9FEF23ED80E391502040C4
S1130B608040E1F700C0000085DB9FEF27EA81E6C3
S1130B70915020408040E1F700C0000062E370E043
S1130B8080E090E0B6DB7CDC9FEF23ED80E39150C6
S1130B9020408040E1F700C0000029813A81F9013A
S1130BA0EE0FFF1FEE0FFF1FEE0FFF1FE20FF31FED
S1130BB08B819C81E80FF91FEE0FFF1FE85FFE4F4A
S1130BC0808191818B3F9105A4F4220F331FF90199
S1130BD0E050FF4F608171818AEF90E0EBDB50DCE5
S1130BE09FEF23ED80E3915020408040E1F700C067
S1130BF0000024DB9FEF23ED80E3915020408040F0
S1130C00E1F700C0000052DB43DB9FEF23ED80E3FC
S1130C10915020408040E1F700C0000066E970E098
S1130C208AEF90E0C7DB2CDC60E070E080E090E0CD
S1130C30C1DB26DCE3CD0F900F900F900F90DF9176
S1130C40CF911F910F9108950F931F93CF93DF932B
S1130C5085B3816085BB85B3806185BBE0DA8EE4B2
S1130C6093E09F938F93CCD180E591E09F938F93F2
S1130C7083EC91E09F938F930BD266EC71E080E557
S1130C8091E0ABD10F900F900F900F900F900F90B9
S1130C90892B61F587E793E09F938F93B1D100E5AA
S1130CA011E01F930F93C3ECD1E0DF93CF93F0D106
S1130CB085B38E7F85BB85B38D7F85BBFEDA8BE8DC
S1130CC093E09F938F939CD11F930F93DF93CF93C4
S1130CD0DFD1FADA85B3816085BB8DB79EB70C96F8
S1130CE00FB6F8949EBF0FBE8DBFB9CF68EC71E00C
S1130CF080E591E072D1892B61F587E793E09F93BA
S1130D008F937ED100E511E01F930F93C3ECD1E0E4
S1130D10DF93CF93BDD185B38E7F85BB85B38260CE
S1130D2085BBCBDA8BE893E09F938F9369D11F93B4
S1130D300F93DF93CF93ACD1C7DA85B3816085BBC2
S1130D408DB79EB70C960FB6F8949EBF0FBE8DBF9D
S1130D5086CF6CEC71E080E591E03FD1892B21F0E6
S1130D608DE993E065D17BCF49DA85B38E7F85BB6E
S1130D7085B38F7E85BBDF91CF911F910F9108952D
S1130D801092170410921604109215041092140471
S1130D9008951F920F920FB60F9211240BB60F9263
S1130DA02F933F934F935F936F937F938F939F936F
S1130DB0AF93BF93EF93FF9332DA85B3816085BB22
S1130DC085B3806185BBFF91EF91BF91AF919F91F6
S1130DD08F917F916F915F914F913F912F910F90E0
S1130DE00BBE0F900FBE0F901F9018951F920F927D
S1130DF00FB60F9211240BB60F922F933F934F937C
S1130E005F936F937F938F939F93AF93BF93EF936E
S1130E10FF9380911204909113048F3F2FEF920758
S1130E2029F0019790931304809312048091100485
S1130E30909111048F3F2FEF920729F0019790931F
S1130E401104809310048091120490911304892B4F
S1130E5039F448DA81E090E0909383018093820131
S1130E608091100490911104892B39F42DDA81E0DA
S1130E7090E09093810180938001FF91EF91BF9165
S1130E80AF919F918F917F916F915F914F913F911E
S1130E902F910F900BBE0F900FBE0F901F901895BF
S1130EA084B3836084BB84B3806384BB85B38E7F47
S1130EB085BB85B38F7E85BB0ED922D947D935D959
S1130EC087B7846087BF81B38E7F81BB82B3816023
S1130ED082BB89B7816089BFEAE6F0E080818260E5
S1130EE08083789454D0E6E2F4E082E791E093833F
S1130EF0828384E691E09183808380D92FEF83E21B
S1130F0094EF215080409040E1F700C0000010921F
S1130F100F0410920E0484EB93E09F938F9370D090
S1130F2080E591E09F938F9383EC91E09F938F935F
S1130F30AFD066EC71E080E591E04FD00F900F9058
S1130F400F900F900F900F90892B11F4A6DADFCF3A
S1130F5068EC71E080E591E040D0892B11F446DC27
S1130F60D6CF6AEC71E080E591E037D0892B11F49B
S1130F706BDECDCF60EF73E080E591E02ED0892B5E
S1130F8011F4FEDEC4CF82EF93E052D0C0CF1092B2
S1130F9098008FEC80939900EBE9F0E08081826007
S1130FA08083EDE9F0E0808186608083EAE9F0E007
S1130FB0808180618083808188608083089590919E
S1130FC09B0095FFFCCF80939C00089580919B002B
S1130FD08823E4F780919C000895FB01DC018D9146
S1130FE081341CF08B350CF4805E619161341CF00B
S1130FF06B350CF4605E861B611189F3990B0895BF
S1131000CF93DF93CDB7DEB7AE014B5F5F4FFA01ED
S113101061917191AF0180912804909129044BD082
S1131020DF91CF910895609128047091290470C5CF
S11310300F931F93CF93DF93E0912804F091290439
S1131040238121FF1BC08C01D0E0C0E0F801819115
S11310508F016091280470912904DB011896ED91A9
S1131060FC911997882331F00995892B79F3DFEFE7
S1131070CFEFECCF8AE00995892B19F08FEF9FEF22
S113108002C08D2F9C2FDF91CF911F910F91089556
S1131090CF93DF93CDB7DEB7AE014B5F5F4FFA015D
S11310A061917191AF018091260490912704B2D38C
S11310B0DF91CF9108952F923F924F925F926F925A
S11310C07F928F929F92AF92BF92CF92DF92EF92D4
S11310D0FF920F931F93CF93DF93CDB7DEB72B9778
S11310E00FB6F894DEBF0FBECDBF6C017B018A0141
S11310F0FC0117821682838181FFBFC1CE01019654
S11311003C01F6019381F70193FD859193FF819151
S11311107F01882309F4ADC1853239F493FD8591AB
S113112093FF81917F01853221F4B60190E0F0D4E0
S1131130E8CF912C212C312CFFE1F315D8F08B3220
S113114079F038F4803279F08332A1F4232D2061D0
S11311501DC08D3261F0803369F4232D216016C0E7
S1131160832D8260382EE32DE4603E2E2AC0F32DB9
S1131170F8601DC037FC2DC020ED280F2A3040F048
S11311808E32B9F436FC75C1232D2064322E19C079
S113119036FE06C08AE0989E200D1124922E11C0BE
S11311A0EAE02E9E200D1124222EF32DF0623F2E14
S11311B008C08C3621F4832D8068382E02C088360E
S11311C041F4F70193FD859193FF81917F01811192
S11311D0B3CF982F9F7D9554933028F40C5F1F4F05
S11311E09FE399830DC0833631F0833771F08335E3
S11311F009F055C020C0F801808189830E5F1F4F1C
S113120088248394912C530112C02801F2E04F0EDC
S1131210511CF801A080B18036FE03C0692D70E036
S113122002C06FEF7FEFC5012AD44C018201F32D78
S1131230FF773F2E15C0280122E0420E511CF80111
S1131240A080B18036FE03C0692D70E002C06FEF4C
S11312507FEFC50109D44C01F32DF0683F2E8201C4
S113126033FC19C0822D90E088169906A0F4B601CB
S113127080E290E04DD42A94F5CFF50137FC8591B6
S113128037FE81915F01B60190E042D421102A9487
S113129021E0821A91088114910479F7E1C084361F
S11312A011F0893639F5F80137FE07C06081718184
S11312B0828193810C5F1F4F08C060817181072E6A
S11312C0000C880B990B0E5F1F4FF32DFF763F2EFA
S11312D097FF09C090958095709561957F4F8F4FCA
S11312E09F4FF0683F2E2AE030E0A30166D4882E99
S11312F0861844C0853731F4232D2F7EB22E2AE080
S113130030E025C0932D997FB92E8F36C1F018F4A3
S1131310883579F0AEC0803719F0883721F0A9C03C
S1131320E92FE061BE2EB4FE0DC0FB2DF460BF2E8C
S113133009C034FE0AC0292F2660B22E06C028E058
S113134030E005C020E130E002C020E132E0F801E5
S1131350B7FE07C060817181828193810C5F1F4F4A
S113136006C06081718180E090E00E5F1F4FA30191
S113137024D4882E8618FB2DFF773F2E36FE0DC011
S1131380232D2E7FA22E891458F434FE0BC032FC78
S113139009C0832D8E7EA82E05C0B82CA32C03C0B3
S11313A0B82C01C0B92CA4FE0FC0FE01E80DF11D3C
S11313B08081803321F49A2D997EA92E09C0A2FE42
S11313C006C0B394B39404C08A2D867809F0B3940C
S11313D0A3FC10C0A0FE06C0B21480F4280C922C0A
S11313E09B180DC0B21458F4B60180E290E090D37B
S11313F0B394F8CFB21418F42B1802C0982C212CF3
S1131400A4FE0FC0B60180E390E082D3A2FE16C012
S1131410A1FC03C088E790E002C088E590E0B60133
S11314200CC08A2D867851F0A1FE02C08BE201C067
S113143080E2A7FC8DE2B60190E06AD3891430F40F
S1131440B60180E390E064D39A94F8CF8A94F301D0
S1131450E80DF11D8081B60190E05AD38110F6CFDA
S1131460222009F44ECEB60180E290E051D32A94B2
S1131470F7CFF6018681978102C08FEF9FEF2B96FD
S11314800FB6F894DEBF0FBECDBFDF91CF911F9191
S11314900F91FF90EF90DF90CF90BF90AF909F900F
S11314A08F907F906F905F904F903F902F90089512
S11314B020FD09C0FC0123FD05C022FF02C0738387
S11314C0628351834083089544FD17C046FD17C0CD
S11314D0AB01BC01DA01FB01AA0FBB1FEE1FFF1F0A
S11314E01094D1F74A0F5B1F6E1F7F1FCB01BA0107
S11314F0660F771F881F991F09C033E001C034E0CD
S1131500660F771F881F991F3150D1F7620F711D25
S1131510811D911D08950F931F93CF93DF938C0129
S1131520C801B8D2EC0197FD06C08BD2892BC1F754
S1131530B801CE0129D3CE01DF91CF911F910F9134
S113154008958F929F92AF92BF92EF92FF920F9362
S11315501F93CF93DF938C01D62F7A01B22E9AD2A8
S11315609C0133272B32310531F02D32310559F4EA
S11315708B2D8068B82ED15011F480E061C0C80171
S113158089D297FDFACFCB2DCD7F2B2D2073F9F483
S11315908033E9F4AA24AA94AD0E09F43EC0C8012C
S11315A079D297FD3AC09C012F7D33272835310528
S11315B041F4C264D25089F1C8016CD297FF07C0CC
S11315C02CC0B6FE02C0C26001C0C261DA2D812CFB
S11315D0912C540120ED280F283078F0C4FF03C06B
S11315E0B801D2D217C02A3040F0C6FFF9CF2F7D00
S11315F03FEE320F3630A0F727504C2FC501B4010F
S113160063DF4B015C01C260D15051F0C80142D28A
S113161097FFE0CFC1FD04C0B0CF812C912C5401C1
S1131620C7FF08C0B094A09490948094811C911C2E
S1131630A11CB11C2C2FB501A401C70139DF81E025
S1131640DF91CF911F910F91FF90EF90BF90AF90DA
S11316509F908F9008955F926F927F928F929F9246
S1131660AF92BF92CF92DF92EF92FF920F931F93AC
S1131670CF93DF93CDB7DEB7A0970FB6F894DEBF54
S11316800FBECDBF5C01962E7A01F9018E010F5F6A
S11316901F4F680180E2D8011D928A95E9F7D501B0
S11316A013968C9080E090E0612C712C30E061E026
S11316B070E083FC259183FE21918F01522E21112C
S11316C003C080E090E090C02E3511F4009751F1F2
S11316D0432F50E0481759073CF42D3559F12D326A
S11316E019F4772009F103C0772009F468C0452D67
S11316F0469546954695D601A40FB11D452D4770D4
S11317008B0102C0000F111F4A95E2F7A8015C91FA
S1131710452B4C93651459F0561410F45394E7CFA9
S11317205A94E5CF31E004C07724739401C0712C3E
S11317300196BFCF772019F08E8180628E8331119C
S113174003C08824839417C0F6019E012F5D3F4F88
S11317508081809581932E173F07D1F7F2CFE11452
S1131760F10429F0D7018C93F70131967F019A9403
S1131770812C9920E9F0C5018DD197FD17C0FC019A
S1131780FF2723E0F595E7952A95E1F7EC0DFD1D7C
S1131790208130E0AC014770552702C0359527956C
S11317A04A95E2F720FDDBCFB501EED1811089CF58
S11317B0E114F10411F0D7011C92C80115C0422FA5
S11317C0469546954695D601A40FB11D422F477004
S11317D08B0102C0000F111F4A95E2F7A8015C912A
S11317E0452B4C93622EA4CFA0960FB6F894DEBF7F
S11317F00FBECDBFDF91CF911F910F91FF90EF905E
S1131800DF90CF90BF90AF909F908F907F906F901C
S11318105F9008955F926F927F928F929F92AF92A2
S1131820BF92CF92DF92EF92FF920F931F93CF93C9
S1131830DF936C01EB015A01FC0117821682512CD3
S1131840F601E380FE01E3FC8591E3FE8191182F0C
S1131850EF01882309F4E0C090E0F3D0892B19F05C
S1131860C60159DEEDCF153241F4FE01E3FC1591BA
S1131870E3FE1191EF01153271F4C6010BD197FD0E
S1131880C9C0412F50E09C01332724173507C1F20A
S1131890B6017AD1C1C01A3239F4E3FC1591E3FEE2
S11318A01191EF0101E001C000E0F12C20ED210FC6
S11318B02A3078F402606F2D70E080E090E040E21E
S11318C003DEF62EFE01E3FC1591E3FE1191EF0118
S11318D0EDCF01FF03C0F11003C09EC0FF24FA94B2
S11318E0183619F01C3651F010C0FE01E3FC1591B6
S11318F0E3FE1191EF01183641F408600460FE0123
S1131900E3FC1591E3FE1191EF01112309F484C066
S1131910612F70E08CE890E09CD0892B09F47CC0A6
S113192000FD07C0F50180809180C50102965C012D
S113193002C0812C912C1E3649F4F6014681578150
S113194060E070E0202FC401B3DD7ACF1336A1F438
S113195001FD02C0FF24F394C6019CD097FD5AC038
S11319608114910429F0F4018083C40101964C018F
S1131970FA94F110F1CF4AC01B3551F49E01A40131
S11319806F2DC60168DEEC01892B09F03FC039C018
S1131990C601C1DD97FD3EC01F3649F128F4143657
S11319A021F1193639F125C0133771F01537E9F0F3
S11319B020C08114910429F0F4016082C4010196CD
S11319C04C01FA94FF2059F0C60164D03C0197FD04
S11319D006C037D0892B69F3B601C301D5D0811471
S11319E09104A1F0F401108211C0006203C00061EF
S11319F001C00064202FA4016F2DC601A2DD811156
S1131A0005C0F6018381807329F406C000FD18CF58
S1131A10539416CF552019F0852D90E002C08FEF16
S1131A209FEFDF91CF911F910F91FF90EF90DF9087
S1131A30CF90BF90AF909F908F907F906F905F906A
S1131A400895911118C1803219F089508550D0F74A
S1131A500895FC010590061621F00020D9F7C00175
S1131A6008953197CF010895FC01059061507040AD
S1131A700110D8F7809590958E0F9F1F0895FC0153
S1131A806150704001900110D8F7809590958E0FA9
S1131A909F1F0895CF93DF93EC012B8120FF33C068
S1131AA026FF0AC02F7B2B838E819F8101969F8303
S1131AB08E838A8190E029C022FF0FC0E881F981DA
S1131AC08081082E000C990B009719F420622B8357
S1131AD01AC03196F983E8830EC0EA85FB8509951F
S1131AE097FF09C02B81019611F080E201C080E1CB
S1131AF0822B8B8308C02E813F812F5F3F4F3F8312
S1131B002E83992702C08FEF9FEFDF91CF91089525
S1131B100F931F93CF93DF93FB01238121FD03C018
S1131B208FEF9FEF2CC022FF16C04681578124817E
S1131B3035814217530744F4A081B1819D012F5F81
S1131B403F4F318320838C93268137812F5F3F4F12
S1131B503783268314C08B01EC01FB010084F185DB
S1131B60E02D0995892BE1F6D80116968D919C916B
S1131B701797019617969C938E931697CE01DF9133
S1131B80CF911F910F910895FB01238120FF12C073
S1131B9026FD10C08F3F3FEF930761F082832F7DB6
S1131BA0206423832681378121503109378326839A
S1131BB0992708958FEF9FEF0895FA01AA272830F7
S1131BC051F1203181F1E8946F936E7F6E5F7F4F06
S1131BD08F4F9F4FAF4FB1E03ED0B4E03CD0670F82
S1131BE0781F891F9A1FA11D680F791F8A1F911DD5
S1131BF0A11D6A0F711D811D911DA11D20D009F425
S1131C0068943F912AE0269F11243019305D319366
S1131C10DEF6CF010895462F4770405D4193B3E04F
S1131C200FD0C9F7F6CF462F4F70405D4A3318F0F6
S1131C30495D31FD4052419302D0A9F7EACFB4E0A7
S1131C40A6959795879577956795BA95C9F700975F
S1131C506105710508959B01AC010A2E0694579500
S1131C60479537952795BA95C9F7620F731F841F57
S1131C70951FA01D0895992788270895F894FFCFEC
S1131C8032001801FE01C60232007800C8000E01BD
S1131C905E01A901F401F401F40128006900AF0018
S1131CA0F00031016D01B801FE01FE012800690058
S1131CB0AF00F00031016D01B801FE01FE01280002
S1131CC06900AF00F00031016D01B801FE01FE01B1
S1131CD030000000000000000000000000000000D0
S1131CE00000000000000001000000000000E60702
S1131CF000000000000200000000DF0700000000F8
S1131D000100010053656C656374206D6F64652088
S1131D103A20737465705F72656C2831292C2073C6
S1131D207465705F6162732832292C207365727642
S1131D306F5F636F6E2833292C2071756974287165
S1131D40293F002573003100320033007100696EB1
S1131D50707574202731272C202732272C20273315
S1131D6027206F72202771270D005820636F6F7230
S1131D7064696E617465203A2000796F7572206918
S1131D806E707574203A202535640D0A0D0A0059C9
S1131D9020636F6F7264696E617465203A20005B22
S1131DA0782C795D203D205B2535642C2025356415
S1131DB05D0D0A0068616E6420203A200077726924
S1131DC07374203A2000656C626F77203A200044D7
S1131DD06F20796F752077616E7420746F20707234
S1131DE06F636565643F5B792F6E5D0079006E00FB
S1131DF0696E70757420277927206F7220276E27EB
S1131E00206F6E6C790D0063757272656E7420506C
S1131E106F736974696F6E203A205B2534642C20DB
S1131E202534645D0D0A0D0A0028666F72557365CA
S1131E30722940407175697420666F7220726F77E1
S1131E40203D3D203440400D0028666F7255736577
S1131E50722977616974696E6720666F72205B729C
S1131E606F772C636F6C756D6E5D203A200025755D
S1131E702C25750028666F725573657229776F7209
S1131E806E6720696E7075740028666F725573658D
S1131E90722971756974202D200028666F7255733C
S1131EA06572295B25752C25755D202D2000446FF6
S1131EB020796F752077616E7420746F2070726F53
S1131EC0636565643F5B792F6E5D203A20004D6F3A
S1131ED0766575702831292C204D6F7665646F778F
S1131EE06E2832292C20676F746F4D61696E4D65C1
S1131EF06E752871293F0072656164793F28616EAF
S1131F007920776F726429203A200073746F7028E7
S1131F10616E7920776F726429203A2000696E70AF
S1131F207574202731272C20273227206F72202711
S1131F3071270D00546573746D6F64652831292C05
S1131F40206175746F6D6F64652832292C206D6172
S1131F506E75616C6D6F64652833292C207365740C
S1131F604865726541735B302C305D2834293F002D
S1131F703400696E707574202731272C202732278E
S1111F802C20273327206F72202734270D00D2
S9030000FC
